:020000040000fa
:10000000f8ff032021d7040029d4050075c5050099
:1000100089c505009dc50500b1c5050000000000ab
:1000200000000000000000000000000025d40500d2
:100030002dd405000000000025d4050025d40500be
:1000400025d4050025d4050025d4050025d40500b8
:1000500025d4050025d4050025d4050025d40500a8
:1000600025d4050025d4050025d4050025d4050098
:1000700025d4050025d4050025d4050025d4050088
:1000800025d4050025d4050025d4050025d4050078
:1000900025d4050025d4050025d4050025d4050068
:1000a00025d4050025d4050025d4050025d4050058
:1000b00025d4050025d4050025d4050041bc040045
:1000c000d5bc040025d4050025d4050025d40500a1
:1000d00025d4050025d4050025d4050025d4050028
:1000e00025d4050025d40500000000000000000014
:1000f0000000000025d40500c5ac0400c5ac040018
:10010000c5ac0400c5ac040071b6040071b60400af
:1001100071b6040071b6040025d4050025d405008d
:1001200025d4050025d4050025d4050025d40500d7
:1001300025d4050025d4050025d4050025d40500c7
:1001400025d4050025d4050025d4050025d40500b7
:1001500025d4050025d4050025d4050025d40500a7
:1001600025d4050025d4050025d4050025d4050097
:1001700025d4050025d4050025d4050025d4050087
:1001800025d4050025d4050025d4050025d4050077
:1001900065ad040025d4050025d4050025d405004f
:1001a00025d4050025d4050025d4050025d4050057
:1001b00025d4050025d4050025d4050025d4050047
:1001c00025d4050025d4050025d4050025d4050037
:1001d00025d4050025d4050025d4050025d4050027
:1001e00025d4050025d4050025d4050009b7040051
:1001f00025d4050025d4050025d4050025d4050007
:1002000025d4050025d4050025d4050025d40500f6
:1002100025d4050025d4050025d4050025d40500e6
:1002200025d4050025d4050025d4050025d40500d6
:1002300025d4050025d4050025d4050025d40500c6
:1002400025d4050025d4050025d4050025d40500b6
:1002500025d4050025d4050025d4050025d40500a6
:0402600025d405009c
:020000040000fa
:10026400f8b500bff8bc08bc9e467047d96f0500be
:10027400f8b500bff8bc08bc9e467047b56f0500d2
:020000040000fa
:08028400bcd7020001000000dc
:020000040000fa
:10028c00504859204173736572743a2025732c20a1
:10029c00696e206c696e653a2025642c200d0a006d
:1002ac0050485920436f6e643a2025732c20696e98
:1002bc00206c696e653a2025642c200d0a00000024
:1002cc004452565f504859206f7065726174696f63
:1002dc006e206572726f723a2025640d0a00000060
:1002ec004452562050485920696e697420666169e1
:1002fc006c65643a2025640d0a000000474d4143ab
:10030c0000000000436869702d5265766973696f4f
:10031c006e000000504c43412d456e61626c65646b
:10032c0000000000504c43412d53746174757300f0
:10033c00504c43412d4e6f6465496400504c434111
:10034c002d4e6f6465436f756e740000504c4341c5
:10035c002d4275727374436f756e7400504c43412b
:10036c002d427572737454696d6572005443362d49
:10037c004368756e6b53697a6500000054582d43c1
:10038c0075745468726f75676800000052582d437d
:10039c0075745468726f75676800000050726f6de9
:1003ac00697363756f75730053504920467265719c
:1003bc0075656e63790000005b736b6970706564c2
:1003cc0020256c755d0d0a00257300004c414e38dc
:1003dc003635785f25642000537461747573302e44
:1003ec005472616e736d69742050726f746f636fa9
:1003fc006c204572726f720d0a00000053746174a8
:10040c007573302e5472616e736d6974204275660b
:10041c00666572204f766572666c6f7720457272d6
:10042c006f720d0a00000000537461747573302ee6
:10043c005472616e736d69742042756666657220c4
:10044c00556e646572666c6f77204572726f720db3
:10045c000a000000537461747573302e5265636525
:10046c0069766520427566666572204f76657266a0
:10047c006c6f77204572726f720d0a005374617441
:10048c007573302e4c6f7373206f66204672616dde
:10049c00696e67204572726f720d0a005374617435
:1004ac007573302e486561646572204572726f7287
:1004bc000d0a0000537461747573302e52657365a8
:1004cc007420436f6d706c6574650d0a000000003c
:1004dc00537461747573302e50485920496e74658d
:1004ec0072727570740d0a00537461747573302eca
:1004fc005472616e736d69742054696d65737461a7
:10050c006d70204361707475726520417661696c01
:10051c0061626c6520410d0a000000005374617427
:10052c007573302e5472616e736d69742054696ddd
:10053c00657374616d7020436170747572652041d0
:10054c007661696c61626c6520420d0a00000000e6
:10055c00537461747573302e5472616e736d69745b
:10056c002054696d657374616d702043617074758e
:10057c00726520417661696c61626c6520430d0a7d
:10058c0000000000537461747573302e5472616ee8
:10059c00736d6974204672616d6520436865636b89
:1005ac002053657175656e6365204572726f720daf
:1005bc000a000000537461747573302e436f6e74af
:1005cc00726f6c20446174612050726f7465637437
:1005dc00696f6e204572726f720d0a0053746174ec
:1005ec007573302e556e6b6e6f776e204269743d4d
:1005fc002564207265672d76616c3d307825640d1d
:10060c000a000000436f6e66696730207265676987
:10061c00737465722072656164206661696c6564cf
:10062c000d0a0000537461747573312e52585f4e6d
:10063c006f6e5f5265636f76657261626c655f4564
:10064c0072726f720d0a0000537461747573312edf
:10065c0054585f4e6f6e5f5265636f766572616260
:10066c006c655f4572726f720d0a00005374617491
:10067c007573312e46534d5f53746174655f4572cb
:10068c00726f720d0a000000537461747573312e11
:10069c005352414d5f4543435f4572726f720d0a71
:1006ac0000000000537461747573312e556e6465cf
:1006bc0072766f6c746167650d0a00005374617417
:1006cc007573312e496e7465726e616c5f42757311
:1006dc005f4572726f720d0a0000000053746174f2
:1006ec007573312e54585f54696d657374616d70f8
:1006fc005f436170747572655f4f766572666c6f7f
:10070c00775f410d0a000000537461747573312ecc
:10071c0054585f54696d657374616d705f4361709b
:10072c00747572655f4f766572666c6f775f420d9c
:10073c000a000000537461747573312e54585f5461
:10074c00696d657374616d705f436170747572650a
:10075c005f4f766572666c6f775f430d0a00000021
:10076c00537461747573312e54585f54696d65738d
:10077c0074616d705f436170747572655f4d697300
:10078c007365645f410d0a00537461747573312e87
:10079c0054585f54696d657374616d705f4361701b
:1007ac00747572655f4d69737365645f420d0a0001
:1007bc00537461747573312e54585f54696d65733d
:1007cc0074616d705f436170747572655f4d6973b0
:1007dc007365645f430d0a00537461747573312e35
:1007ec004d434c4b5f47454e5f5374617475730dad
:1007fc000a000000537461747573312e67505450a5
:10080c005f50415f54535f45475f53746174757318
:10081c000d0a0000537461747573312e457874653c
:10082c006e6465645f426c6f636b5f537461747567
:10083c00730d0a00537461747573312e556e6b6ea3
:10084c006f776e4572726f720d0a00005365747487
:10085c00696e67206661696c65642c2061646472e2
:10086c003d307825580d0a00457874426c6f636be7
:10087c002e5350495f4572725f496e740d0a000029
:10088c00457874426c6f636b2e4d41435f424d470c
:10089c00525f496e740d0a00457874426c6f636b3d
:1008ac002e4d41435f496e740d0a00004578744229
:1008bc006c6f636b2e484d585f496e740d0a0000c7
:1008cc00457874426c6f636b2e47494e545f4d6193
:1008dc00736b0d0a00000000457874426c6f636bfb
:1008ec002e556e6b6e6f776e4572726f720d0a00bd
:1008fc0046696e616c2073657474696e67206661fd
:10090c00696c65640d0a0000496e76616c6964203f
:10091c004d41435048592c206f75693d307825580e
:10092c002c206d6f64656c3d307825580d0a0000e5
:10093c00496e76616c6964204368697020526576f3
:10094c006973696f6e0d0a00636869705f65727216
:10095c006f722120506c6561736520636f6e7461da
:10096c006374206d6963726f63686970207375704e
:10097c00706f727420666f72207265706c61636543
:10098c006d656e742e0d0a005443364572726f728b
:10099c005f5375636365656465640d0a0000000050
:1009ac005443364572726f725f4e6f486172647752
:1009bc006172650d0a0000005443364572726f7205
:1009cc005f556e657870656374656453760d0a00c7
:1009dc005443364572726f725f556e6578706563fd
:1009ec00746564447645760d0a0000005443364520
:1009fc0072726f725f426164436865636b73756d8d
:100a0c000d0a00005443364572726f725f556e6565
:100a1c00787065637465644374726c0d0a00000031
:100a2c005443364572726f725f426164547844610c
:100a3c0074610d0a000000005443364572726f72e7
:100a4c005f53796e634c6f73740d0a0054433645d3
:100a5c0072726f725f5370694572726f720d0a0019
:100a6c005443365f4572726f7220756e6b6e6f7782
:100a7c006e5f666c61673d25640d0a004c414e3813
:100a8c003635583000000000644d49494d20417303
:100a9c00736572743a2025732c20696e206c696e14
:100aac00653a2025642c200d0a000000496e766101
:100abc006c69642064726976657220696e73746106
:100acc006e636500496e7374616e636520616c7250
:100adc006561647920696e2075736500496e766175
:100aec006c69642044726976657220496e73746116
:100afc006e63650057617320746865206472697653
:100b0c00657220696e697469616c697a65643f000d
:100b1c00496e76616c69642044726976657220480e
:100b2c00616e646c650000004661696c65642074dc
:100b3c006f2067657420636c69656e74206d7574c5
:100b4c006578206c6f636b004661696c656420741a
:100b5c006f20676574207265736f75726365206ca6
:100b6c006f636b00496e73756666696369656e7455
:100b7c00205175657565204465707468000000002f
:100b8c00454d763100000000544350204e554c4cde
:100b9c002064796e616d696320616c6c6f63617444
:100bac00696f6e2068616e646c652f696e69742064
:100bbc006461746100000000205443502044796e3d
:100bcc00616d696320616c6c6f636174696f6e2019
:100bdc006661696c656400006664622066756c6ca5
:100bec000000000025732c20616464726573733af5
:100bfc002025730d0a0000006661696c20616c6c25
:100c0c006f63000025732c207061636b6574733afd
:100c1c0020256c750d0a000025732c206465736308
:100c2c00726970746f72733a20256c750d0a00002e
:100c3c006661696c204d54550000000025732c2012
:100c4c0073697a653a20256c750d0a006661696cca
:100c5c002053697a65000000706b7420706f6f6ca4
:100c6c0020656d70747900006463707420706f6f10
:100c7c006c20656d707479006661696c206c6f63b3
:100c8c006b000000656e74727920616464656400a9
:100c9c00656e747279206578706972656400000005
:100cac00756e6b6e6f776e210d0a0000427269646f
:100cbc006765206576656e743a2025732c20746ff9
:100ccc0074616c206576656e74733a2025640d0a28
:100cdc0000000000737461746963000064796e61d4
:100cec006d69630065787400696e76616c69640087
:100cfc0073746174757300007374617475733a2046
:100d0c0025640d0a00000000737461747300000008
:100d1c00636c72006661696c656420746f20676532
:100d2c0074207374617473210d0a00007374617400
:100d3c00732072657475726e65643a2025640d0ab1
:100d4c000000000009206661696c506b74416c6c8a
:100d5c006f633a2025642c206661696c446370745f
:100d6c00416c6c6f633a2025642c206661696c4c75
:100d7c006f636b733a2025642c2066646246756c35
:100d8c006c3a2025640d0a0009206661696c4d617e
:100d9c00633a2025642c206661696c4d74753a2089
:100dac0025642c206661696c53697a653a20256448
:100dbc000d0a00000920616c6c6f635061636b65f8
:100dcc0074733a2025642c206672656564506163e7
:100ddc006b6574733a2025642c2061636b506163de
:100dec006b6574733a2025642c2064656c617950b2
:100dfc0061636b6574733a2025640d0a0000000072
:100e0c000920706b74506f6f6c53697a653a2025aa
:100e1c00642c20706b74506f6f6c4c6f7753697ac5
:100e2c00653a2025642c20706b74506f6f6c456d87
:100e3c007074793a2025640d0a000000092064635f
:100e4c007074506f6f6c53697a653a2025642c204e
:100e5c0064637074506f6f6c4c6f7753697a653a3a
:100e6c002025642c2064637074506f6f6c456d701a
:100e7c0074793a2025640d0a000000000920706f77
:100e8c0072742025642073746174733a0d0a000027
:100e9c00090920706b7473207265636569766564eb
:100eac003a2025642c2064657374206d652d756360
:100ebc006173743a2025642c2064657374206e6f02
:100ecc00746d652d75636173743a2025642c2064f0
:100edc00657374206d636173743a2025640d0a0088
:100eec00090920706b747320726573657276656482
:100efc003a2025642c206677642075636173743afc
:100f0c002025642c20667764206d636173743a200d
:100f1c0025642c20667764206469726563743a20ba
:100f2c0025640d0a000000007265676973746572b0
:100f3c0000000000726567697374657220726573d6
:100f4c00756c743a203078253038780d0a00000022
:100f5c007265676973746572656420616c72656132
:100f6c0064793a203078253038780d0a000000007a
:100f7c0064657265676973746572000064652d72cf
:100f8c006567697374657220726573756c743a2049
:100f9c0025640d0a000000006e6f7420726567698d
:100fac00737465726564210d0a000000666462004a
:100fbc0073686f770000000046444220656e7472bf
:100fcc006965733a2025640d0a0000000d0a094575
:100fdc006e747279206e756d6265723a2025640d9f
:100fec000a00000009456e747279206465737441bf
:100ffc0064643a2025730d0a000000006e6f6e6564
:10100c00000000002c202573000000002c20706fc5
:10101c00727420257300000009456e747279206685
:10102c006c6167733a203078253032783a2025731a
:10103c000d0a000009456e747279206c6561726e40
:10104c0020706f72743a2025640d0a0009456e7485
:10105c007279206f7574506f72744d61705b25647a
:10106c005d3a20002573200009456e747279207456
:10107c004578706972653a203078253038780d0ad9
:10108c000000000009456e74727920667764506127
:10109c00636b6574733a20256c750d0a00000000b3
:1010ac0075736167653a2062726964676520737451
:1010bc00617475730d0a000075736167653a20627f
:1010cc007269646765207374617473203c636c721d
:1010dc003e0d0a0075736167653a20627269646738
:1010ec0065207265676973746572203c706172610a
:1010fc006d3e0d0a0000000075736167653a206251
:10110c007269646765206664622073686f770d0a84
:10111c000000000073756363657373007463702063
:10112c00747261636520257320666f7220736f6320
:10113c006b65743a2025642025730d0a00000000ad
:10114c0075736167653a20746370747261636520ae
:10115c006f6e2f6f6666206e0d0a00005443502090
:10116c00736f636b6574733a202564200d0a00005d
:10117c0009736b7449783a2025642c20616464549b
:10118c007970653a2025642c2072656d6f746550fa
:10119c006f72743a2025642c206c6f63616c506ff5
:1011ac0072743a2025642c20666c6167733a203087
:1011bc0078253032780d0a0009727853697a653acd
:1011cc002025642c20747853697a653a2025642c88
:1011dc002073746174653a2025642c2072785065f4
:1011ec006e643a2025642c20747850656e643a2025
:1011fc0025640d0a0000000075736167653a207460
:10120c00637020696e666f203c6e3e0d0a00000014
:10121c0055736167653a206d6163696e666f200d69
:10122c000a00000045783a206d6163696e666f2094
:10123c000d0a0000496e746572666163653a20257b
:10124c007320447269766572205374617469737487
:10125c006963730d0a0000000d0a2052656365690d
:10126c00766520537461746973746963730d0a0035
:10127c0009206e52784f6b5061636b6574733a2022
:10128c0025640d0a09206e527850656e64427566ad
:10129c00666572733a2025640d0a09206e527853e4
:1012ac0063686564427566666572733a2025640de1
:1012bc000a00000009206e52784572726f725061fc
:1012cc00636b6574733a2025640d0a09206e52789d
:1012dc00467261676d656e744572726f72733a20f7
:1012ec0025640d0a09206e5278427566664e6f743d
:1012fc00417661696c61626c653a2025640d0a0067
:10130c000d0a205472616e736d697420537461748c
:10131c006973746963730d0a0000000009206e5430
:10132c00784f6b5061636b6574733a2025640d0aba
:10133c0009206e547850656e6442756666657273ea
:10134c003a2025640d0a09206e54784572726f722a
:10135c005061636b6574733a2025640d0a09206e25
:10136c005478517565756546756c6c3a2025640d1d
:10137c000a0d0a00096e6f7420737570706f7274a9
:10138c0065640d0a00000000496e74657266616345
:10139c00653a20257320486172647761726520522a
:1013ac0065676973746572205374617475730d0a83
:1013bc0000000000092025733a20307825780d0aaa
:1013cc000000000050696e673a20646f6e652e2035
:1013dc0053656e7420256420726571756573747322
:1013ec002c207265636569766564202564207265be
:1013fc00706c6965732e0d0a0000000050696e67f1
:10140c002055736167653a2070696e67203c737470
:10141c006f703e2f3c6e616d652f616464726573f5
:10142c00733e203c6920696e746572666163653e2b
:10143c00203c6e206e50696e67733e203c74206dac
:10144c0073506572696f643e203c732073697a65d2
:10145c003e0d0a0073746f700000000050696e67d7
:10146c003a20636f6d6d616e6420696e2070726fcf
:10147c0067726573732e205265747279206c617477
:10148c0065722e0d0a00000050696e673a20486f95
:10149c007374206e616d6520746f6f206c6f6e6756
:1014ac002e2052657472792e0d0a000050696e67f9
:1014bc003a20446174612073697a6520746f6f20df
:1014cc006269672e204d61783a2025642e20526582
:1014dc007472790d0a00000050696e673a20556edf
:1014ec006b6e6f776e20706172616d657465720dd5
:1014fc000a00000050696e673a207265736f6c7653
:10150c00696e6720686f73743a2025730d0a0000aa
:10151c00556e6b6e6f776e20686561702074797094
:10152c00652e205573653a205b312c2025645d0daa
:10153c000a0000004e6f206865617020696e666f4e
:10154c002065786973747320666f72207479706586
:10155c003a202573210d0a0048656170207479705a
:10156c00653a2025732e20496e697469616c20637d
:10157c0072656174656420686561702073697a6551
:10158c003a2025642042797465730d0a000000002e
:10159c00416c6c6f6361626c6520626c6f636b2075
:1015ac00686561702073697a653a202564204279f8
:1015bc007465730d0a000000416c6c2061766169e2
:1015cc006c61626c6520686561702073697a653a3c
:1015dc002025642042797465732c20686967682023
:1015ec0077617465726d61726b3a2025640d0a0027
:1015fc004c6173742068656170206572726f723a09
:10160c0020307825780d0a004e6f20547261636586
:10161c0020696e666f206578697374732e0d0a00ed
:10162c00537461636b207570206661696c65640d21
:10163c000a000000537461636b207570207375632e
:10164c006365656465640d0a00000000557361678d
:10165c00653a20737461636b203c75702f646f77ef
:10166c006e3e203c70726573657276653e0d0a00a5
:10167c0045783a20737461636b20646f776e2070c9
:10168c00726573657276650d0a00000053746163b0
:10169c006b20616c7265616479207570210d0a0094
:1016ac005475726e20537461636b20646f776e2077
:1016bc00616e64207468656e207570210d0a0000df
:1016cc0052657374617274696e67207468652073f7
:1016dc007461636b207769746820256420696e746b
:1016ec006572666163652873290d0a005374616322
:1016fc006b20646f776e3a2063616e6e6f74206737
:10170c006574206120737461636b2068616e646c16
:10171c00650d0a00537461636b20646f776e2064ef
:10172c006f6e650d0a00000055736167653a20699c
:10173c0066203c696e746572666163653e203c642c
:10174c006f776e2f75703e200d0a000045783a2099
:10175c006966205049433332494e5420646f776e8a
:10176c00200d0a00556e6b6e6f776e20696e746576
:10177c007266616365207370656369666965642070
:10178c000d0a00005468697320696e746572666195
:10179c00636520616c72656164792075700d0a0057
:1017ac004f7065726174696f6e206661696c6564f7
:1017bc002e204e6f20636f6e666967757261746957
:1017cc006f6e0d0a000000005468697320696e7416
:1017dc0065726661636520616c7265616479206411
:1017ec006f776e0d0a00000057726f6e6720706184
:1017fc0072616d6574657220737065636966696585
:10180c0064200d0a000000004f7065726174696fee
:10181c006e207375636365737366756c210d0a00b6
:10182c004f7065726174696f6e206661696c656476
:10183c00210d0a0055736167653a207365746d61fb
:10184c0063203c696e746572666163653e203c780a
:10185c003a783a783a783a783a783e200d0a00008d
:10186c0045783a207365746d616320504943333277
:10187c00494e542061613a62623a63633a64643a55
:10188c0065653a6666200d0a000000006172677695
:10189c005b325d3a2025730d0a000000496e7661bb
:1018ac006c6964204d4143206164647265737320dc
:1018bc00737472696e67200d0a0000005365742002
:1018cc004d41432061646472657373206661696c79
:1018dc0065640d0a000000005365742042494f53a3
:1018ec00204e616d65204f4b0d0a0000536574202e
:1018fc0042494f53204e616d65206661696c656489
:10190c000d0a000055736167653a2073657462694e
:10191c006f73203c696e746572666163653e203c32
:10192c00782e782e782e783e200d0a0045783a20b5
:10193c0073657462696f73205049433332494e5456
:10194c00204d434850424f4152445f3239200d0ada
:10195c00000000005365742067617465776179201d
:10196c0061646472657373204f4b0d0a00000000b4
:10197c005365742067617465776179206164647262
:10198c00657373206661696c65640d0a0000000064
:10199c0055736167653a207365746777203c696e8f
:1019ac00746572666163653e203c697076342f36cf
:1019bc0020616464726573733e203c76616c69646b
:1019cc0054696d653e200d0a0000000045783a20f0
:1019dc007365746777205049433332494e54203134
:1019ec0039322e3136382e302e31200d0a000000bf
:1019fc00496e76616c69642049502061646472653b
:101a0c00737320737472696e67200d0a00000000f6
:101a1c005365742069702061646472657373204f20
:101a2c004b0d0a0053657420697020616464726503
:101a3c007373206661696c65640d0a005573616788
:101a4c00653a207365746970203c696e74657266c2
:101a5c006163653e203c697076342f362061646486
:101a6c00726573733e203c697076346d61736b2fb5
:101a7c006970763620707265666978206c656e3e8a
:101a8c000d0a000045783a2073657469702050493e
:101a9c00433332494e54203139322e3136382e30c0
:101aac002e38203235352e3235352e3235352e3016
:101abc00200d0a004e6f207375636820696e746583
:101acc0072666163652069732075700d0a000000f1
:101adc00416e2061646472657373207365727669fc
:101aec00636520697320616c72656164792072751d
:101afc006e6e696e672e2053746f7020444843508d
:101b0c002c205a434c4c2c206574632e2066697231
:101b1c0073740d0a00000000496e76616c696420d4
:101b2c004950206d61736b20737472696e67200d60
:101b3c000a00000055736167653a20736574646e22
:101b4c00733420696620616464203c312f323e0d71
:101b5c000a00000045783a20736574646e73342073
:101b6c0065746830203139322e3136382e312e31b1
:101b7c000d0a0000556e6b6e6f776e20696e746582
:101b8c007266616365207370656369666965640d6f
:101b9c000a000000496e76616c6964204950763405
:101bac00206164647265737320737472696e670d5f
:101bbc000a000000556e6b6e6f776e20444e5320fa
:101bcc00696e6465780d0a0053657420444e532089
:101bdc00256420616464726573732025730d0a009b
:101bec007375636365737366756c00006661696c0d
:101bfc00656421004e6f6e65000000007365740013
:101c0c006765740044656661756c7420696e7465f3
:101c1c007266616365207365742025730d0a00007c
:101c2c0044656661756c7420696e74657266616377
:101c3c00652069733a2025730d0a0000557361679e
:101c4c00653a206465666e6574207365742f6765ec
:101c5c0074203c696e746572666163653e0d0a00a2
:101c6c0045783a206465666e6574207365742065ea
:101c7c007468300d0a0000007a636c6c0000000080
:101c8c0064656661756c742049502061646472658a
:101c9c007373000055500000444f574e0000000075
:101cac004e6f74205265616479000000556e6b6e46
:101cbc006f776e20696e746572666163650d0a00dc
:101ccc002d2d2d2d2d2d2d2d2d2d20496e74657224
:101cdc0066616365203c25732f25733e2825642996
:101cec00202d2d2d2d2d2d2d2d2d2d0d0a000000ef
:101cfc00496e7465726661636520697320646f77e1
:101d0c006e0d0a00486f7374204e616d653a202584
:101d1c0073202d204e424e532064697361626c65b2
:101d2c0064200d0a000000004950763420416464a0
:101d3c00726573733a2025730d0a00004d61736b45
:101d4c003a2025730d0a0000476174657761793a72
:101d5c002025730d0a000000444e53313a202573a0
:101d6c000d0a0000444e53323a2025730d0a000030
:101d7c004d414320416464726573733a2025730da1
:101d8c000a0000002573206973204f4e0d0a0000d5
:101d9c004c696e6b2069732025730d0a00000000de
:101dac005374617475733a2025730d0a000000009a
:101dbc0050696e673a2077726f6e67207265706c2f
:101dcc00792072656365697665642e204d61736b4d
:101ddc003a2030782532780d0a00000050696e6781
:101dec003a207265706c795b25645d2066726f6d4c
:101dfc002025733a2074696d65203d2025646d7330
:101e0c000d0a000050696e673a20444e53206661fb
:101e1c00696c75726520666f722025730d0a00005f
:101e2c00444e53204c6f6f6b75703a20444e5320c8
:101e3c006661696c75726520666f722025732c2043
:101e4c006572723a2025640d0a000000444e53203e
:101e5c004c6f6f6b75703a20726571756573742079
:101e6c0074696d656f75742e0d0a00004c6f6f6b85
:101e7c00757020416e737765723a0d0a2d2d2d2ddc
:101e8c002d2d2d2d2d2d2d2d2d2d2d2d2d2d2d2d76
:101e9c002d2d0d0a000000004e6f204c6f6f6b75de
:101eac007020656e74727920666f72205b25735d8d
:101ebc000d0a00005b25735d2041204950763420cb
:101ecc00416464726573733a2025642e25642e2553
:101edc00642e25640d0a00005b25735d2041414191
:101eec0041204950763620416464726573733a2000
:101efc0025730d0a00000000656e61626c650000c0
:101f0c00656e61626c65640064697361626c650026
:101f1c0064697361626c65640000000055736167ed
:101f2c00653a20646e7363203c64656c2f696e6641
:101f3c006f2f6f6e2f6f66662f6c6f6f6b75703ea9
:101f4c00200d0a0055736167653a202573203c6f9c
:101f5c006e2f6f66663e203c696e746572666163b7
:101f6c00653e203c7374726963742f707265663eb3
:101f7c002f3c636c6561723e200d0a0045783a2057
:101f8c002573206f6e20657468300d0a0000000008
:101f9c0073747269637400007072656600000000ef
:101fac00636c656172000000556e6b6e6f776e200e
:101fbc006f7074696f6e0d0a000000002573202588
:101fcc00730d0a004661696c656420746f2025737b
:101fdc002025730d0a00000055736167653a206473
:101fec006e7363206c6f6f6b7570203c74797065c9
:101ffc003e203c686f73744e616d653e200d0a0087
:10200c0048656c703a203c686f73744e616d653e28
:10201c002855524c29202d206c6f6f6b2075702029
:10202c00666f7220686f73746e616d650d0a0000c7
:10203c0048656c703a203c747970653e203a20619a
:10204c00206f72204120666f7220495076342061d7
:10205c00646472657373206c6f6f6b75700d0a001e
:10206c0048656c703a203c747970653e203a20616a
:10207c00616161206f72204141414120666f722085
:10208c00495076362061646472657373206c6f6f8f
:10209c006b75700d0a00000048656c703a203c743a
:1020ac007970653e203a20616e7920666f722062ed
:1020bc006f7468204950763420616e6420495076e4
:1020cc00362061646472657373206c6f6f6b75700e
:1020dc000d0a0000646e7363206c6f6f6b75703a41
:1020ec0020636f6d6d616e6420696e2070726f6716
:1020fc00726573732e205265747279206c617465ed
:10210c00722e0d0a00000000414141410000000008
:10211c006161616100000000414e5900616e7900ff
:10212c00646e7363206c6f6f6b75703a205b2573f4
:10213c005d204c6f6f6b75702054797065206e6fdd
:10214c007420737570706f727465642e0d0a0000c4
:10215c00646e7363206c6f6f6b75703a20486f738d
:10216c0074206e616d6520746f6f206c6f6e672ebe
:10217c002052657472792e0d0a000000646e736330
:10218c00206c6f6f6b75703a207265736f6c76692b
:10219c006e6720686f73743a20257320666f722007
:1021ac00747970653a202573200d0a0055736167a8
:1021bc00653a20646e73632064656c203c686f73b1
:1021cc00744e616d653e7c616c6c200d0a000000e4
:1021dc0048656c703a203c686f73744e616d653e57
:1021ec002855524c29202d2052656d6f7665207430
:1021fc00686520656e7472792069662065786973ec
:10220c007473200d0a00000048656c703a20616cf4
:10221c006c202d2052656d6f766520616c6c20747e
:10222c006865207265736f6c76656420656e747278
:10223c0079200d0a00000000616c6c005b25735d59
:10224c00206e6f742070617274206f6620746865e4
:10225c0020444e5320436163686520656e74727927
:10226c00200d0a00496e636f6d706c657465206398
:10227c006f6d6d616e64200d0a000000557361670f
:10228c00653a20646e736320696e666f200d0a00d8
:10229c0048656c703a20646973706c61792074685d
:1022ac006520444e5320636163686520656e7472cb
:1022bc00792064657461696c73200d0a000000005c
:1022cc00444e5320436c69656e7420697320646faf
:1022dc00776e210d0a000000444e5320436c696553
:1022ec006e74204946202d205374726963743a2011
:1022fc0025732c205072656665727265643a2025d0
:10230c00730d0a00444e5320436c69656e74202d86
:10231c002074696d653a2025642c2070656e6469a3
:10232c006e673a2025642c2063757272656e743a60
:10233c002025642c20746f74616c3a2025640d0a7e
:10234c0000000000486f73746e616d65203d2025a0
:10235c0073200d0a54696d656f7574203d202564da
:10236c00200d0a0049507634203d25730d0a0000db
:10237c002d2d2d2d2d2d2d2d2d2d2d2d2d2d2d2d81
:10238c002d2d2d2d2d2d2d2d2d2d2d2d2d2d2d2d71
:10239c002d2d2d2d2d2d2d2d2d2d2d2d2d2d2d2d61
:1023ac002d2d2d2d0d0a000049507636203d20256f
:1023bc00730d0a004e6f20444e5320436c69656eba
:1023cc007420436163686520656e7472696573205f
:1023dc000d0a0000496e76616c696420496e707557
:1023ec007420436f6d6d616e64203a5b2025732001
:1023fc005d200d0a0000000055736167653a2025c9
:10240c0073203c696e746572666163653e203c6f37
:10241c006e2f6f66663e200d0a00000045783a204c
:10242c002573205049433332494e54206f6e200d92
:10243c000a0000003a20737461636b20636f6d6d4a
:10244c00616e6473000000007463706970000000ba
:10245c004661696c656420746f2063726561746594
:10246c0020544350495020436f6d6d616e64730d61
:10247c000a000000544350495020636f6d6d616e2b
:10248c006473207461736b20726567697374726115
:10249c0074696f6e206661696c65640d0a000000da
:1024ac00696e7465726e616c00000000706f6f6c09
:1024bc000000000065787465726e616c00000000ad
:1024cc0064656c006c6f6f6b757000006465660002
:1024dc006677640066696c74000000006e65746950
:1024ec006e666f003a20476574206e6574776f7264
:1024fc006b20696e666f726d6174696f6e0000009f
:10250c006465666e657400003a205365742f4765e8
:10251c00742064656661756c7420696e746572668e
:10252c00616365003a205475726e205a434c4c20fe
:10253c006f6e2f6f66660000736574646e73340083
:10254c003a2053657420444e532049507634206110
:10255c0064647265737300007365746970000000c5
:10256c003a2053657420495020616464726573731a
:10257c0020616e64206d61736b000000736574677d
:10258c00770000003a2053657420476174657761c9
:10259c007920616464726573730000007365746202
:1025ac00696f73003a2053657420686f73742773d6
:1025bc00204e657442494f53206e616d65000000da
:1025cc007365746d616300003a20536574204d414e
:1025dc0043206164647265737300000069660000d7
:1025ec003a204272696e6720616e20696e74657262
:1025fc00666163652075702f646f776e0000000054
:10260c00737461636b0000003a20537461636b2038
:10261c007475726e206f6e2f6f66660068656170e0
:10262c00696e666f000000003a20436865636b209a
:10263c0068656170207374617475730070696e677e
:10264c00000000003a2050696e6720616e204950ee
:10265c00206164647265737300000000646e7363c0
:10266c00000000003a20444e5320636c69656e7480
:10267c0020636f6d6d616e64730000006d61636942
:10268c006e666f003a20436865636b204d414320b2
:10269c00737461746973746963730000746370009c
:1026ac003a2054435020636f6d6d616e647300006b
:1026bc007463707472616365000000003a20456eab
:1026cc0061626c6520544350207472616365000034
:1026dc003a20427269646765000000002d7478002e
:1026ec006970657266733a2073697a652072616edf
:1026fc006765206572726f72210d0a002d72780069
:10270c002d2d696e646578006970657266733a2068
:10271c00696e6465782072616e6765206572726f90
:10272c0072210d0a0000000055736167653a20693b
:10273c007065726673203c2d74782073697a653edf
:10274c00203c2d72782073697a653e203c2d6920df
:10275c00696e6465783e0d0a000000000d0a697010
:10276c006572663a20496e76616c69642073657394
:10277c0073696f6e206e756d6265722e204d696e79
:10278c003a20302c204d61783a2025640d0a000047
:10279c006970657266733a2030203c2073697a65e3
:1027ac00203c2036353533360d0a000069706572d1
:1027bc0066733a204f4b2c20696e7374616e63659f
:1027cc002025642074782073697a6520697320252c
:1027dc00640d0a006970657266733a204f4b2c20a9
:1027ec00696e7374616e6365202564207278207342
:1027fc00697a652069732025640d0a006970657219
:10280c00666b3a205573696e6720696e6465782033
:10281c00300d0a0069706572666b3a20696e6465ea
:10282c00782072616e6765206572726f72210d0a75
:10283c000000000055736167653a20697065726627
:10284c006b203c2d6920696e6465783e0d0a000092
:10285c000d0a69706572662073657373696f6e3ae1
:10286c00206e6f742073746172746564210d0a009c
:10287c000d0a69706572663a20747279696e672008
:10288c00746f2073746f7020697065726620696e46
:10289c007374616e63652025642e2e2e0d0a000064
:1028ac0055736167653a20697065726669202d61a0
:1028bc002061646472657373203c2d6920696e64b9
:1028cc0065783e0d0a0000006970657266693a20f1
:1028dc0075736520612076616c69642049502061b4
:1028ec00646472657373210d0a000000697065726f
:1028fc0066693a20696e6465782072616e6765203e
:10290c006572726f72210d0a0000000069706572a9
:10291c0066693a20556e6b6e6f776e2070617261ce
:10292c006d657465720d0a000d0a697065726669d1
:10293c003a2063616e6e6f74206368616e67652008
:10294c0074686520697020616464726573732077a4
:10295c0068696c652073657373696f6e3a202564c2
:10296c002072756e6e696e67210d0a006970657252
:10297c0066693a204f4b2c2073657420746865206f
:10298c004950206164647265737320746f20696ea2
:10299c007374616e63653a2025640d0a00000000b3
:1029ac00202020202d205b25326c752d2025326cab
:1029bc0075207365635d2025336c752f2025336c72
:1029cc0075202825326c75252529202020202534ba
:1029dc006c75204b6270730d0a00000020202020c3
:1029ec002d205b302e302d20256c752e256c7520fe
:1029fc007365635d2025336c752f2025336c752032
:102a0c002825326c752525292020202025346c752d
:102a1c00204b6270730d0a0069706572663a20690a
:102a2c006e7374616e636520256420636f6d706cca
:102a3c0065746564202e2e2e000000000d0a69704e
:102a4c006572663a205761726e696e672c2054432a
:102a5c00502073657276657220646973636f6e6e55
:102a6c006563742064657465637465640d0a0000a5
:102a7c0069706572663a204661696c656420746f92
:102a8c002067657420256420627974657320736fe8
:102a9c00636b65742054582073706163650d0a0074
:102aac0069706572663a20536f636b657420736549
:102abc006e64206661696c65640d0a0069706572ec
:102acc006620696e7374616e63652025643a2054c8
:102adc007820646f6e652e20536f636b6574206372
:102aec006c6f7365642e0d0a0000000069706572ce
:102afc00663a20696e7374616e6365202564206389
:102b0c006f6d706c657465642e0d0a000d0a69702a
:102b1c006572663a20416c6c20696e7374616e63e9
:102b2c00657320627573792e205265747279206cee
:102b3c0061746572210d0a002d2d736572766572b4
:102b4c00000000002d2d7564700000002d2d6261b9
:102b5c006e647769647468000a476976656e2069eb
:102b6c006e2042573a20256c752b256c753d256cd3
:102b7c00750000002d2d786d69747261746500000c
:102b8c002d2d636c69656e74000000002d2d746929
:102b9c006d6500002d2d6e756d0000002d5300002d
:102bac002d2d746f730000000a476976656e2054f2
:102bbc004f532076616c75652069732025642c2039
:102bcc006d547970654f66536572766963653a2505
:102bdc00640000002d4d00002d2d6d73730000005e
:102bec002d6900002d2d696e74657276616c000084
:102bfc002d7000002d2d706f727400002d6c000074
:102c0c002d2d6c656e00000069706572663a20545b
:102c1c006865206d696e696d756d2064617461679e
:102c2c0072616d2073697a652069732025640d0ac1
:102c3c000000000069706572663a205573696e6712
:102c4c00207468652064656661756c7420696e74a7
:102c5c00657266616365210d0a0000002d2d2d2d16
:102c6c002d2d2d2d2d2d2d2d2d2d2d2d2d2d2d2d88
:102c7c002d2d2d2d2d2d2d2d2d2d2d2d2d2d2d2d78
:102c8c002d2d2d2d2d2d2d2d2d2d2d2d2d2d2d2d68
:102c9c002d2d2d2d2d0d0a0069706572663a20536d
:102cac006572766572206c697374656e696e6720e7
:102cbc006f6e2000554450005443500020706f72ca
:102ccc00742025640d0a00000d0a69706572663a5d
:102cdc00205374617274696e672073657373696fc6
:102cec006e20696e7374616e63652025640d0a0035
:102cfc000d0a69706572663a20696e7374616e6351
:102d0c00652025642073746172746564202e2e2ee8
:102d1c000d0a0000202020202d204c6f63616c20b8
:102d2c002025752e25752e25752e257520706f7214
:102d3c007420257520636f6e6e65637465642077ef
:102d4c006974680d0a000000202020202d20526597
:102d5c006d6f74652025752e25752e25752e2575a0
:102d6c0020706f72742025750d0a00002020202021
:102d7c002d205461726765742072617465203d204a
:102d8c00256c64206270732c20706572696f6420ee
:102d9c003d20256c64206d730d0a0000202020203e
:102dac002d2d2d2d2d2d2d2d2d2d2d2d2d2d2d2d47
:102dbc002d2d2d2d2d2d2d2d2d2d2d2d2d2d2d2d37
:102dcc002d2d2d2d2d2d2d2d2d0d0a00697065729b
:102ddc00663a20556e737570706f7274656420431b
:102dec006f6e66696775726174696f6e0d0a0000ab
:102dfc0069706572663a204372656174652054434c
:102e0c005020736f636b6574206661696c65640d2b
:102e1c000a00000069706572663a20536574206f71
:102e2c0066205258206275666665722073697a65f1
:102e3c00206661696c65640d0a000000697065723a
:102e4c00663a204372656174652055445020736f57
:102e5c00636b6574206661696c65640d0a00000023
:102e6c0069706572663a2050726f746f636f6c2074
:102e7c006572726f720d0a0069706572663a205540
:102e8c004450204765742041727261792046616913
:102e9c006c65640d0a0000000d0a69706572663a73
:102eac0020696e7374616e6365202564207365738d
:102ebc0073696f6e2073746172746564202e2e2e8c
:102ecc000d0a000069706572663a202d2046697201
:102edc00737420706b74206964203d20256c642011
:102eec002873686f756c642062652030290d0a00a8
:102efc0069706572663a2052656376206475706cf1
:102f0c0069636174656420706b740d0a00000000c5
:102f1c0069706572663a2052782074696d65642018
:102f2c006f75740d0a0000000d0a697065726620d9
:102f3c00696e7374616e63652025643a2052782043
:102f4c00646f6e652e20536f636b657420636c6fba
:102f5c007365642e0d0a0000697065726620696ed7
:102f6c007374616e63652025643a205265616479df
:102f7c0020666f7220746865206e657874207365a6
:102f8c007373696f6e2e0d0a000000006970657214
:102f9c006620696e7374616e63652025643a2063e4
:102fac006f6d706c657465642e0d0a0069706572c6
:102fbc00663a20636c69656e742073657373696f10
:102fcc006e20636c6f7365642e0d0a0069706572f8
:102fdc00663a2041525020756e61626c6520746fa8
:102fec00207265736f6c766520746865204d414363
:102ffc002061646472657373206f662072656d6ff7
:10300c00746520736964652e0d0a00002020202051
:10301c002d2052656d6f74654e6f6465204d414374
:10302c003a202578202578202578202578202578a9
:10303c002025780d0a00000069706572663a2053ed
:10304c006574206f66205458206275666665722020
:10305c0073697a65206661696c65640d0a0000000d
:10306c0069706572663a20536574206f66205458f7
:10307c002071756575696e67206c696d6974206661
:10308c0061696c65640d0a0069706572663a20436b
:10309c006c69656e7420636f6e6e656374696e67c0
:1030ac0020746f2025752e25752e25752e25752cd3
:1030bc002055445020706f72742025750d0a000045
:1030cc0069706572663a20436c69656e7420636f33
:1030dc006e6e656374696e6720746f2025752e257e
:1030ec00752e25752e25752c2054435020706f722b
:1030fc00742025750d0a000069706572663a2054bb
:10310c00435020436c69656e7420636f6e6e65630b
:10311c0074696f6e2074696d656f75740d0a0000ab
:10312c003a20697065726620636f6d6d616e6473b1
:10313c000000000069706572660000003a20203cb7
:10314c0069706572663e20737461727420636d647d
:10315c000000000069706572666b00003a203c69e3
:10316c00706572666b3e206b696c6c20636d6400dd
:10317c0069706572666900003a203c697065726618
:10318c006920616464726573733e2020696e746596
:10319c00726661636520636d64000000697065721e
:1031ac00667300003a203c6970657266732074780f
:1031bc002f72782073697a653e2074782f7278208c
:1031cc0073697a6520636d640000000049507634a1
:1031dc00204173736572743a2025732c20696e201c
:1031ec006c696e653a2025642c200d0a00000000e5
:1031fc004950763420496e69743a204661696c6591
:10320c006420746f20696e6974616c697a653a2008
:10321c00256421200d0a0000495076343a2046617d
:10322c00696c656420746f2072656769737465726c
:10323c0020415250206e6f74696669636174696fc6
:10324c006e21200d0a000000495076343a2041527c
:10325c005020656e747269657320706f6f6c206599
:10326c006d707479210d0a002e2e2f7372632f63eb
:10327c006f6e6669672f64656661756c742f6c6917
:10328c0062726172792f74637069702f7372632f1d
:10329c00646e732e630000002e2e2f7372632f63e7
:1032ac006f6e6669672f64656661756c742f6c69e7
:1032bc0062726172792f74637069702f7372632fed
:1032cc0074637069705f68656c706572735f70723f
:1032dc0069766174652e68002e2e2f7372632f63ce
:1032ec006f6e6669672f64656661756c742f6c69a7
:1032fc0062726172792f74637069702f7372632fad
:10330c0074637069705f68656c706572732e6300ae
:10331c0025642e25642e25642e256400252e3278f6
:10332c003a252e32783a252e32783a252e32783ab2
:10333c00252e32783a252e32780000006c6f7700fb
:10334c00544350495020537461636b20417373652f
:10335c0072743a20696e2066696c653a2025732c6c
:10336c002066756e633a2025732c206c696e653a65
:10337c002025642c200d0a005443502f4950205313
:10338c007461636b3a202573204d414320696e694b
:10339c007469616c697a6174696f6e206661696cbd
:1033ac0065640d0a000000005443502f495020530f
:1033bc007461636b3a202573204d4143204f706537
:1033cc006e206661696c65640d0a00005443502fd1
:1033dc00495020537461636b3a204d6f64756c6572
:1033ec00206e6f3a20256420496e697469616c699e
:1033fc007a6174696f6e206661696c65640d0a0090
:10340c005443502f495020537461636b3a202573f9
:10341c00204d4143206576656e74206e6f7469662d
:10342c0069636174696f6e2073657474696e67206b
:10343c006661696c65640d0a0000000054435049d4
:10344c005020537461636b20436f6e643a20696e35
:10345c002066696c653a2025732c2066756e633a7c
:10346c002025732c206c696e653a2025642c200d68
:10347c000a0000005443502f495020537461636b71
:10348c003a2048656170206372656174696f6e20c3
:10349c006661696c65642c20747970653a202564ca
:1034ac000d0a00005443502f495020537461636b34
:1034bc003a204e6574776f726b20636f6e66696726
:1034cc0075726174696f6e20616c6c6f6361746985
:1034dc006f6e206661696c65643a20256c750d0a07
:1034ec00000000005443502f495020537461636b0b
:1034fc003a205061636b657420696e697469616c04
:10350c00697a6174696f6e206661696c65643a20d2
:10351c00307825780d0a00005443502f4950205321
:10352c007461636b3a2044656661756c7420466cfb
:10353c00617368204e6574776f726b20636f6e6673
:10354c00696775726174696f6e206c6f6164206657
:10355c0061696c656420257a750d0a005443502fff
:10356c00495020537461636b3a204e6574776f72c7
:10357c006b20636f6e66696775726174696f6e201c
:10358c00696e697469616c697a6174696f6e2066c1
:10359c0061696c65643a2025640d0a005443502f10
:1035ac00495020537461636b3a204e6574776f7287
:1035bc006b20636f6e66696775726174696f6e3ac2
:1035cc0020696e76616c6964204950206164647274
:1035dc006573733a2030782538780d0a00000000a6
:1035ec002573257a750000002573257a753a2564b4
:1035fc00000000005443502f495020537461636bfa
:10360c003a20506f776572204d6f646520696e6942
:10361c007469616c697a6174696f6e206661696c3a
:10362c003a2025640d0a00005443502f4950205372
:10363c007461636b3a2044796e616d6963206d65ca
:10364c006d6f7279206973206c6f773a20256c75d9
:10365c000d0a00005443502f495020537461636b82
:10366c003a20496e697469616c697a6174696f6e2c
:10367c00206661696c6564202564202d2041626f91
:10368c007274696e6721200d0a0000005443502f9c
:10369c00495020537461636b3a20496e69746961b7
:1036ac006c697a6174696f6e2053746172746564ad
:1036bc00200d0a005443502f495020537461636b02
:1036cc003a204e6574776f726b20636f6e66696714
:1036dc0075726174696f6e206c6f616420666169cc
:1036ec006c65643a2025640d0a0000005443502f89
:1036fc00495020537461636b3a205469636b207298
:10370c006567697374726174696f6e206661696c48
:10371c0065643a2025640d0a000000005443502fc4
:10372c00495020537461636b3a20496e6974696126
:10373c006c697a6174696f6e2053595320544d52e1
:10374c00206661696c65643a202564202d204162f5
:10375c006f7274696e6721200d0a00005443502f5c
:10376c00495020537461636b3a20496e69746961e6
:10377c006c697a6174696f6e20456e646564202d86
:10378c002073756363657373200d0a005443502fc7
:10379c00495020537461636b3a20496e74657266ac
:1037ac0061636520496e697469616c697a617469d9
:1037bc006f6e206661696c65643a203078257820dc
:1037cc002d2041626f7274696e6721200d0a000012
:1037dc002e2e2f7372632f636f6e6669672f64656d
:1037ec006661756c742f6c6962726172792f746387
:1037fc007069702f7372632f74637069705f6d6181
:10380c006e616765722e6300756e6b00657468007f
:10381c00776c616e0000000070707000673361643b
:10382c00700000005061636b65742041636b3a203b
:10383c006f727068616e207061636b657421200d0e
:10384c000a000000554450204e554c4c2064796eb3
:10385c00616d696320616c6c6f636174696f6e205c
:10386c0068616e646c6500005544502044796e614b
:10387c006d696320616c6c6f636174696f6e206637
:10388c0061696c656400000042726964676520417f
:10389c0073736572743a2025732c20696e206c69e1
:1038ac006e653a2025642c200d0a0000546f6f20a1
:1038bc006d75636820646174612e2041626f72744f
:1038cc0065640d0a000000000d0a416363657373a3
:1038dc002064656e6965640d0a0d0a00506173738e
:1038ec00776f72643a20fffd2d0000000d0a4c6fbb
:1038fc006767656420696e207375636365737366af
:10390c00756c6c790d0a0d0a000000000d0a2d2d46
:10391c002d2054656c6e657420436f6e736f6c65ef
:10392c00202d2d2d0d0a547970652068656c702042
:10393c00666f7220636f6d6d616e64730d0a3e006d
:10394c004661696c656420746f20636f6e6e65638d
:10395c007420746f2074686520636f6d6d616e6484
:10396c002070726f636573736f722e2041626f7279
:10397c0074696e67210d0a002e2e2f7372632f63ec
:10398c006f6e6669672f64656661756c742f6c6900
:10399c0062726172792f74637069702f7372632f06
:1039ac0074656c6e65742e630000000074656c6e3b
:1039bc006574204e554c4c2064796e616d696320a2
:1039cc00616c6c6f636174696f6e2068616e646c9e
:1039dc00652f696e69742064617461002074656c74
:1039ec006e65742044796e616d696320616c6c6fd7
:1039fc00636174696f6e206661696c6564000000b8
:103a0c002074656c6e65743a2053657474696e67c6
:103a1c0020545820427566666572206661696c6533
:103a2c00643a2025640d0a002074656c6e65743a46
:103a3c002053657474696e6720525820427566660f
:103a4c006572206661696c65643a2025640d0a0014
:103a5c00465f5a434c4c456e61626c653a2041524c
:103a6c005020726567697374726174696f6e204659
:103a7c0061696c6564212121200d0a005443504971
:103a8c00505f5a434c4c5f496e697469616c697a3a
:103a9c00653a204661696c656420746f20616c6cba
:103aac006f63617465206d656d6f72790d0a00002e
:103abc000d0a2d2d2d2d2d2d2d20537570706f72ff
:103acc0074656420636f6d6d616e642067726f75d1
:103adc007073202d2d2d2d2d2d0000000d0a202a68
:103aec002a2a2000202a2a2a000000000d0a2d2d47
:103afc002d2d2d2d2d2d2d2d204275696c742069a9
:103b0c006e20636f6d6d616e6473202d2d2d2d2dc8
:103b1c002d2d2d2d2d0000000d0a556e6b6e6f771f
:103b2c006e20636f6d6d616e642067726f75702ea1
:103b3c00205472792068656c700d0a00082008000a
:103b4c00080000001b5b2564430000001b5b256420
:103b5c00440000000d0a202a2a2a20517569747429
:103b6c00696e672074686520436f6d6d616e6420ab
:103b7c0050726f636573736f722e20427965202ac1
:103b8c002a2a0d0a000000000d0a202a2a2a205396
:103b9c00797374656d205265626f6f74202a2a2abe
:103bac000d0a000020092c004661696c65642074c4
:103bbc006f206372656174652074686520436f6e55
:103bcc00736f6c65204150490d0a0000202a2a2a87
:103bdc0020436f6d6d616e642050726f63657373fb
:103bec006f723a20506c6561736520747970652032
:103bfc00696e206120636f6d6d616e642a2a2a0dd7
:103c0c000a000000202a2a2a20436f6d6d616e6421
:103c1c002050726f636573736f723a20756e6b6ea2
:103c2c006f776e20636f6d6d616e642e202a2a2a69
:103c3c000d0a00000a0d20546f6f206d616e792003
:103c4c00617267756d656e74732e204d6178696d48
:103c5c00756d206172677320737570706f72746507
:103c6c00643a202564210d0a000000003e0000008b
:103c7c00081b5b4b25731b5b25644400081b5b4bcb
:103c8c00000000001b5b4b25731b5b25644400008c
:103c9c00202a2a2a20436f6d6d616e642050726f4a
:103cac00636573736f7220627566666572206578e2
:103cbc006365656465642e2052657472792e202ac2
:103ccc002a2a0d0a0000000072657365740000005a
:103cdc003a20526573657420686f7374000000009d
:103cec00710000003a207175697420636f6d6d610d
:103cfc006e642070726f636573736f7200000000e6
:103d0c0068656c70000000003a2068656c700000fb
:103d1c001b5b41001b5b42001b5b43001b5b4400b5
:103d2c001b5b317e000000001b5b347e000000003a
:103d3c004c414e38363578004d4348505f4c414e1f
:103d4c0038363578000000003139322e3136382eb5
:103d5c00302e3131000000003235352e3235352e03
:103d6c003235352e300000003139322e3136382eb6
:103d7c00302e3100302e302e302e30004d43485036
:103d8c00424f4152445f43003139322e3136382e86
:103d9c00302e3132000000003139322e3136382ebf
:103dac00302e2e31000000002f656d61696c41646e
:103dbc0064726573733d00002f5549443d0000004b
:103dcc002f6661766f75726974654472696e6b3dae
:103ddc00000000002f44433d000000002f434e3de7
:103dec00000000002f433d002f4c3d002f53543d4d
:103dfc00000000002f4f3d002f4f553d00000000ec
:103e0c002f73657269616c4e756d6265723d000051
:103e1c002f534e3d000000002d2d2d2d2d424547da
:103e2c00494e2043455254494649434154452d2d52
:103e3c002d2d2d002d2d2d2d2d454e44204345523d
:103e4c0054494649434154452d2d2d2d2d0000003c
:103e5c002d2d2d2d2d424547494e205835303920da
:103e6c0043524c2d2d2d2d2d000000002d2d2d2dd0
:103e7c002d454e4420583530392043524c2d2d2d94
:103e8c002d2d00002d2d2d2d2d424547494e204521
:103e9c00432050524956415445204b45592d2d2d08
:103eac002d2d00002d2d2d2d2d454e44204543202c
:103ebc0050524956415445204b45592d2d2d2d2df1
:103ecc00000000002d2d2d2d2d424547494e20522e
:103edc0053412050524956415445204b45592d2da4
:103eec002d2d2d002d2d2d2d2d454e442052534181
:103efc002050524956415445204b45592d2d2d2dbe
:103f0c002d0000002d2d2d2d2d424547494e2050c2
:103f1c0055424c4943204b45592d2d2d2d2d00003c
:103f2c002d2d2d2d2d454e44205055424c494320ce
:103f3c004b45592d2d2d2d2d000000002d2d2d2df7
:103f4c002d424547494e2050524956415445204b2d
:103f5c0045592d2d2d2d2d002d2d2d2d2d454e441e
:103f6c002050524956415445204b45592d2d2d2d4d
:103f7c002d0000002d2d2d2d2d424547494e20455d
:103f8c004e43525950544544205052495641544581
:103f9c00204b45592d2d2d2d2d0000002d2d2d2d77
:103fac002d454e4420454e435259505445442050c3
:103fbc00524956415445204b45592d2d2d2d2d0040
:103fcc002d2d2d2d2d424547494e20445341205037
:103fdc00524956415445204b45592d2d2d2d2d0020
:103fec002d2d2d2d2d454e4420445341205052490a
:103ffc0056415445204b45592d2d2d2d2d0000009b
:10400c002d2d2d2d2d424547494e205253412050e8
:10401c0055424c4943204b45592d2d2d2d2d00003b
:10402c002d2d2d2d2d454e442052534120505542bf
:10403c004c4943204b45592d2d2d2d2d00000000b2
:10404c000102040053454350323234523100000017
:10405c0046464646464646464646464646464646f4
:10406c0046464646464646464646464646464646e4
:10407c003030303030303030303030303030303034
:10408c00303030303030303100000000464646468b
:10409c0046464646464646464646464646464646b4
:1040ac0046464646464646464646464546464646a5
:1040bc004646464646464646464646464646464694
:1040cc004646464500000000423430353041383514
:1040dc003043303442334142463534313332353655
:1040ec00353034344230423744374246443842410a
:1040fc003237304233393433323335354646423435
:10410c00000000004646464646464646464646465b
:10411c004646464646464646464646464646464633
:10412c0031364132453042384630334531334444e0
:10413c0032393435354335433241334400000000c5
:10414c004237304530434244364242344246374689
:10415c0033323133393042393441303343314433e3
:10416c0035364332313132323334333238304436ef
:10417c003131354331443231000000004244333791
:10418c00363338384235463732334642344332328e
:10419c004446453643443433373541303541303766
:1041ac0034373634343444353831393938353030a5
:1041bc0037453334000000005052494d45323339f5
:1041cc005631000037464646464646464646464623
:1041dc004646464646464646464646463746464682
:1041ec00464646464646464638303030303030300b
:1041fc0030303030374646464646464646464646ba
:10420c000000000037464646464646464646464669
:10421c004646464646464646464646463746464641
:10422c0046464646464646463830303030303030ca
:10423c00303030303746464646464646464646437c
:10424c00000000003642303136433342444346319d
:10425c0038393431443044363534393231343735e9
:10426c00434137314139444232464232374431447a
:10427c0033373739363138354332393432433041bc
:10428c0000000000374646464646464646464646e9
:10429c0046464646464646464646464637464646c1
:1042ac00464639453545394139463544393037313b
:1042bc00464244313532323638383930394430425e
:1042cc000000000030464641393633434443413800
:1042dc003831364343433333423836343242454423
:1042ec004639303543334433353835373344334628
:1042fc0032374642424433423343423941414146cc
:10430c0000000000374445424538453445393041ba
:10431c0035444145364534303534434135333042ec
:10432c004130343635344233363831384345323205
:10433c0036423339464343423742303246314145a7
:10434c000000000053454350323536523100000016
:10435c0046464646464646463030303030303031a0
:10436c003030303030303030303030303030303041
:10437c003030303030303030464646464646464681
:10438c0046464646464646464646464646464646c1
:10439c000000000046464646464646463030303021
:1043ac003030303130303030303030303030303000
:1043bc003030303030303030303030304646464699
:1043cc004646464646464646464646464646464681
:1043dc0046464643000000003541433633354438e9
:1043ec0041413341393345374233454242443535f7
:1043fc003736393838364243363531443036423028
:10440c0043433533423046363342434533433345d9
:10441c0032374432363034420000000046464646bd
:10442c0046464646303030303030303046464646d0
:10443c004646464646464646464646464243453628
:10444c004641414441373137394538344633423996
:10445c004341433246433633323535310000000098
:10446c0036423137443146324531324334323437b7
:10447c00463842434536453536334134343046327e
:10448c003737303337443831324445423333413097
:10449c00463441313339343544383938433239367e
:1044ac000000000034464533343245324645314134
:1044bc003746394238454537454234413743304613
:1044cc003945313632424345333335373642333151
:1044dc00354543454342423634303638333742460d
:1044ec0035314635000000005345435033383452c3
:1044fc003100000046464646464646464646464637
:10450c00464646464646464646464646464646463f
:10451c00464646464646464646464646464646462f
:10452c00464646464646464646464646464646461f
:10453c004646464546464646464646463030303068
:10454c003030303030303030303030304646464607
:10455c004646464600000000464646464646464607
:10456c0046464646464646464646464646464646df
:10457c0046464646464646464646464646464646cf
:10458c0046464646464646464646464646464646bf
:10459c0046464646464646454646464646464646b0
:1045ac0030303030303030303030303030303030ff
:1045bc0046464646464646430000000042333331e9
:1045cc00324641374532334545374534393838451d
:1045dc00303536424533463832443139313831443e
:1045ec003943364546453831343131323033313444
:1045fc003038384635303133383735414336353637
:10460c0033393844384132454431394432413835f4
:10461c00433845444433454332414546000000008d
:10462c00464646464646464646464646464646461e
:10463c00464646464646464646464646464646460e
:10464c0046464646464646464646464646464646fe
:10465c0043373633344438314634333732444446a6
:10466c0035383141304442323438423041373741a9
:10467c00454345433139364143434335323937336a
:10468c000000000041413837434132324245384244
:10469c003035333738454231433731454633323084
:1046ac00414437343645314433423632384241374f
:1046bc00394239383539463734314530383235346a
:1046cc003241333835353032463235444246353551
:1046dc003239364333413534354533383732373652
:1046ec003041423700000000333631374445344105
:1046fc0039363236324336463544394539384246f6
:10470c0039323932444332394638463431444244e2
:10471c0032383941313437434539444133313133ff
:10472c0042354630423843303041363042314345d1
:10473c0031443745383139443741343331443743c8
:10474c003930454130453546000000005345435053
:10475c003532315231000000314646464646464617
:10476c0046464646464646464646464646464646dd
:10477c0046464646464646464646464646464646cd
:10478c0046464646464646464646464646464646bd
:10479c0046464646464646464646464646464646ad
:1047ac00464646464646464646464646464646469d
:1047bc00464646464646464646464646464646468d
:1047cc00464646464646464646464646464646467d
:1047dc0046464646464646464646460031464646c8
:1047ec00464646464646464646464646464646465d
:1047fc00464646464646464646464646464646464d
:10480c00464646464646464646464646464646463c
:10481c00464646464646464646464646464646462c
:10482c00464646464646464646464646464646461c
:10483c00464646464646464646464646464646460c
:10484c0046464646464646464646464646464646fc
:10485c004646464646464646464646464646430035
:10486c0035313935334542393631384531433941a3
:10487c0031463932394132314130423638353430b3
:10488c00454541324441373235423939423331356d
:10489c00463342384234383939313845463130396b
:1048ac00453135363139333935314543374539336f
:1048bc00374231363532433042443342423142463c
:1048cc003037333537334446383833443243333456
:1048dc00463145463435314644343642353033461c
:1048ec003030000031464646464646464646464629
:1048fc00464646464646464646464646464646464c
:10490c00464646464646464646464646464646463b
:10491c00464646464646464646464646464646462b
:10492c0046464646464641353138363837383342a6
:10493c0046324639363642374643433031343846b0
:10494c0037303941354430334242354339423838b7
:10495c00393943343741454242364642373145397d
:10496c003133383634303900433638353845303603
:10497c00423730343034453943443945334543426a
:10498c0036363233393542343432394336343831b1
:10499c003339303533464235323146383238414678
:1049ac003630364234443344424141313442354549
:1049bc00373745464537353932384645314443312a
:1049cc00323741324646413844453333343842332a
:1049dc00433138353641343239424639374537451b
:1049ec0033314332453542443636000031313833a9
:1049fc003932393641373839413342433030343526
:104a0c0043384135464234324337443142443939d4
:104a1c003846353434343935373942343436383114
:104a2c0037414642443137323733453636324339d3
:104a3c0037454537323939354546343236343043cb
:104a4c0035353042393031334641443037363133e5
:104a5c0035334337303836413237324332343038dd
:104a6c0038424539343736394644313636353000dc
:104a7c003031323334353637383941424344454688
:104a8c004748494a4b4c4d4e4f5051525354555632
:104a9c005758595a6162636465666768696a6b6cda
:104aac006d6e6f707172737475767778797a2b2f4f
:104abc0000000000444f574e475244004d5154548f
:104acc00000000004d51497364700000546573740c
:104adc002067726f757020636f6d6d616e64733ad1
:104aec000a0d0000202068656c70202020202020fa
:104afc0020202020202020202020202020202020aa
:104b0c002020202d2053686f7720746869732068eb
:104b1c00656c700a0d000000202074696d6573745b
:104b2c00616d70202020202020202020202020209b
:104b3c00202020202020202d2053686f77206275a4
:104b4c00696c642074696d657374616d700a0d0015
:104b5c002020757074696d65202020202020202075
:104b6c002020202020202020202020202020202d2c
:104b7c002054696d652073696e636520626f6f7474
:104b8c002f6c6173742072657365740a0d000000dc
:104b9c002020697064756d70203c6d6f64653e20db
:104bac002020202020202020202020202020202dec
:104bbc002044756d70205258204950207061636bf1
:104bcc006574732028303d6f66662c20313d65740a
:104bdc0068302c20323d657468312c20333d626f77
:104bec007468290a0d00000020207374617473200e
:104bfc0020202020202020202020202020202020a9
:104c0c00202020202020202d2053686f77205458fe
:104c1c002f525820636f756e7465727320666f72b5
:104c2c00206574683020616e6420657468310a0deb
:104c3c000000000020206d656d696e666f202020dd
:104c4c002020202020202020202020202020202058
:104c5c002020202d2046726565206d656d6f727960
:104c6c00206f6e2074686520432d72756e74696dab
:104c7c0065206865617020616e64207468652054dd
:104c8c0043502f495020686561700a0d00000000e8
:104c9c00202064756d70203c616464723e203c631e
:104cac006f756e743e202020202020202020202d87
:104cbc002044756d70206d656d6f72792028686564
:104ccc007820616464722c20636f756e74290a0df0
:104cdc000000000020207065656b203c61646472ec
:104cec003e205b73697a655d2020202020202020e7
:104cfc002020202d205265616420612073696e672d
:104d0c006c652076616c7565202873697a653d3118
:104d1c007c327c34290a0d002020706f6b65203c9e
:104d2c00616464723e203c76616c3e205b73697af0
:104d3c00655d20202020202d20577269746520612c
:104d4c002073696e676c652076616c7565202873bd
:104d5c00697a653d317c327c34290a0d00000000f3
:104d6c0020206c6f67636c656172202020202020ee
:104d7c002020202020202020202020202020202d1a
:104d8c0020436c656172206465666572726564208f
:104d9c007061636b6574206c6f6720627566666505
:104dac00720a0d0020206c6f6773746174202020d0
:104dbc0020202020202020202020202020202020e7
:104dcc002020202d2053686f7720646566657272f1
:104ddc006564206c6f6720737461746973746963a4
:104dec00730a0d0020206661756c746c6f67205b14
:104dfc00636c6561725d2020202020202020202003
:104e0c002020202d2053686f7720286f7220636c30
:104e1c006561722920746865206c617374207265f9
:104e2c00636f7264656420486172644661756c746a
:104e3c0020616e616c797369730a0d0020206372b6
:104e4c00617368746573742020202020202020203a
:104e5c0020202020202020202020202d2044656c84
:104e6c00696265726174656c7920747269676765d3
:104e7c0072206120486172644661756c74202874dc
:104e8c0065737473206661756c746c6f67290a0d99
:104e9c000000000020206370756c6f6164206f6ee1
:104eac007c6f66667c73746174737c7265736574f5
:104ebc007c6c697665202d205065722d7461736b46
:104ecc00206d61696e2d6c6f6f70206379636c65fa
:104edc002070726f66696c696e6720286465666104
:104eec00756c74206f6666290a0d000020206c65b5
:104efc0064206f6e7c6f666620202020202020208e
:104f0c0020202020202020202020202d20547572ad
:104f1c006e20746865206f6e626f617264204c4500
:104f2c00443120285043323129206f6e206f72207b
:104f3c006f66660a0d0000000a0d4c414e3836357e
:104f4c0078207265676973746572732c207465734d
:104f5c0074206d6f6465732c20504c43413a207360
:104f6c00656520276c616e68656c70270a0d000002
:104f7c00506f7274206d6972726f722f736e6966e6
:104f8c006665723a2073656520276d6972726f725f
:104f9c00272f27736e6966666572272e20526177fc
:104fac00206672616d6520746573743a2073656553
:104fbc0020276e6f69705f73656e64272e0a0d0073
:104fcc00544350206563686f207365727665723a3e
:104fdc0020736565202774657374736572766572ca
:104fec00272e2050657273697374656e7420636f1d
:104ffc006e6669673a20736565202773686f7765fd
:10500c006e76272e0a0d00003d3d3d3d3d3d3d3d5c
:10501c003d3d3d3d3d3d3d3d3d3d3d3d3d3d3d3db4
:10502c003d3d3d3d3d3d3d3d3d3d3d3d3d3d0a0d07
:10503c000000000074637069705f69706572665f70
:10504c006c616e3836357820627269646765202d24
:10505c00204275696c6420496e666f0a0d00000071
:10506c004275696c642054696d657374616d703a36
:10507c002053657020203820323032362031353aba
:10508c0034373a35310a0d005b4c4f475d2072695d
:10509c006e672062756666657220636c6561726509
:1050ac00640d0a005b4c4f475d20746f74616c3d5e
:1050bc0025752070656e64696e673d2575206f7669
:1050cc006572666c6f77733d2575206275667369c2
:1050dc007a653d25750d0a005b4c4f475d20706f5e
:1050ec006f6c5f6f66667365743d257520706f6fae
:1050fc006c5f73697a653d2575202825752066726d
:10510c00616d65732078202575206279746573292b
:10511c000d0a00006c65643a204c454431206f6eda
:10512c000a0d00006c65643a204c454431206f66d2
:10513c00660a0d0075736167653a206c6564206fb3
:10514c006e7c6f66660a0d006370756c6f61643af5
:10515c0020656e61626c65642c20737461747320bd
:10516c0072657365740a0d006370756c6f61643ad7
:10517c002064697361626c65640a0d006370756c00
:10518c006f61643a20737461747320726573657413
:10519c000a0d00006372617368746573743a20744d
:1051ac00726967676572696e672061204861726415
:1051bc004661756c74206e6f772e2e2e0a0d0000d2
:1051cc00253038783a200000202530327800000055
:1051dc002020200020202025730a0d00432d7275fd
:1051ec006e74696d6520686561703a20746f7461c6
:1051fc006c3d257520206c61726765737420667236
:10520c00656520626c6f636b3d25752020286e618f
:10521c006e6f2d6d616c6c6f633b206e6f206578cb
:10522c00616374206672656520636f756e74290df9
:10523c000a0000005443502f495020686561703ab1
:10524c002020202073697a653d25752020667265c3
:10525c00653d257520206d6178626c6f636b3d2513
:10526c007520206869676877617465723d25750dd6
:10527c000a0000005443502f495020686561703a71
:10528c0020202020286e6f2068616e646c65290dcb
:10529c000a00000065746830000000006574683115
:1052ac000000000025733a206e6f7420666f756ed7
:1052bc00640a0d0025732054583a206f6b3d256409
:1052cc00206572723d2564207146756c6c3d2564b9
:1052dc002070656e643d25640a0d00002573205214
:1052ec00583a206f6b3d2564206572723d25642011
:1052fc006e6f627566733d25642070656e643d2526
:10530c00640a0d0025733a207374617473206e6ff8
:10531c007420617661696c61626c650a0d00000035
:10532c006d61696e206c6f6f703a20256c7520630f
:10533c0079636c65732f730a0d00000075707469c6
:10534c006d653a2025756420253032753a2530324a
:10535c00753a25303275202028256c752073207302
:10536c00696e636520626f6f742f6c617374207249
:10537c0065736574290d0a0061646d696e00000027
:10538c0070617373776f72640000000054656c6e0b
:10539c006574204163636573732041757468656e31
:1053ac00746963617465640a0d00000054656c6e69
:1053bc00657420416363657373204465636c696e27
:1053cc0065640a0d0000000055736167653a207032
:1053dc006f6b65203c616464726573735f6865789c
:1053ec003e203c76616c75655f6865783e205b732a
:1053fc00697a653d317c327c345d0a0d0000000019
:10540c004578616d706c653a20706f6b65203078f3
:10541c003432303030303030203078313233343533
:10542c0036373820340a0d00307825303858203c77
:10543c003d203078253032580a0d00003078253068
:10544c003858203c3d203078253034580a0d000067
:10545c00307825303858203c3d203078253038586d
:10546c000a0d000053697a65206d757374206265ae
:10547c0020312c20322c206f7220340a0d000000b9
:10548c0055736167653a207065656b203c61646497
:10549c00726573735f6865783e205b73697a653dee
:1054ac00317c327c345d0a0d000000004578616d62
:1054bc00706c653a207065656b2030783432303012
:1054cc003030303020340a0d0000000030782530a8
:1054dc0038583a203078253032580a0d0000000038
:1054ec003078253038583a203078253034580a0d29
:1054fc00000000003078253038583a2030782530bc
:10550c0038580a0d0000000055736167653a206930
:10551c007064756d70203c6d6f64653e2020283082
:10552c003d6f66662c20313d657468302c20323d11
:10553c00657468312c20333d626f7468290a0d0044
:10554c004950204c617965722044756d70206465fa
:10555c002d6163746976617465640a0d0000000046
:10556c004950204c617965722044756d70206163df
:10557c0074697661746564206f6e20657468300a96
:10558c000d0000004950204c617965722044756d06
:10559c007020616374697661746564206f6e206538
:1055ac007468310a0d0000004950204c6179657215
:1055bc002044756d70206163746976617465642034
:1055cc006f6e206574683020616e6420657468317c
:1055dc000a0d0000506172616d65746572206f7503
:1055ec0074206f662072616e67650a0d0000000002
:1055fc0055736167653a2064756d70203c61646415
:10560c00726573735f6865783e203c636f756e746a
:10561c003e0a0d004578616d706c653a2064756dbd
:10562c007020307832303030303030302036340a20
:10563c000d000000436f756e74206d7573742062dd
:10564c0065203e20300a0d004d656d6f7279206427
:10565c00756d703a2030782530385820202575200b
:10566c0062797465730a0d003a2054657374204393
:10567c006f6d6d616e64730054657374000000008f
:10568c004f4b00004641494c45442028736c6f74c5
:10569c0020616c72656164792074616b656e2900a0
:1056ac004641494c454400004c414e38363531009a
:1056bc004c414e3836353000756e6b6e6f776e2000
:1056cc006d6f64656c00000076656e646f7200002f
:1056dc004c414e3837343041200000004d69637224
:1056ec006f63686970000000205b5452554e435d37
:1056fc00000000004275696c642054696d65737418
:10570c00616d702020203a205365702020382032a3
:10571c003032362031353a34373a35310a0d000003
:10572c0054656c6e657420617574682068616e6474
:10573c006c657220726567697374726174696f6edf
:10574c003a2025730a0d0000446973636f76657205
:10575c007920554450207365727665723a20257312
:10576c002028706f7274202575290a0d0000000026
:10577c006574683020283130424153452d543153e3
:10578c0029203a204e4f5420415641494c41424c1d
:10579c00450a0d006574683020283130424153456c
:1057ac002d54315329203a20757020202020286355
:1057bc0068697020494420636f756c64206e6f7447
:1057cc002062652072656164290a0d006574683079
:1057dc0020283130424153452d54315329203a2051
:1057ec007570202020202573207265762025752069
:1057fc002028444556494420307825303858290a09
:10580c000d0000006574683120283130304241535e
:10581c00452d545829203a204e4f54204156414989
:10582c004c41424c450a0d006574683120283130da
:10583c0030424153452d545829203a207570202070
:10584c0020202850485920494420636f756c6420ef
:10585c006e6f742062652072656164290a0d000008
:10586c00657468312028313030424153452d5458ed
:10587c0029203a2075702020202025732025736d57
:10588c006f64656c20307825303258207265762034
:10589c0025752020284f5549203078253036582c36
:1058ac0020504859494420253034583a2530345832
:1058bc00290a0d004272696467696e67206973205a
:1058cc0044495341424c4544202d206974206e6557
:1058dc0065647320626f746820696e7465726661aa
:1058ec006365732e0a0d0000436f6e74696e7569e3
:1058fc006e67206f6e20746865207375727669769a
:10590c00696e6720696e746572666163653b2063be
:10591c006865636b20746865205048592f64617505
:10592c00676874657220626f6172642e0a0d0000e4
:10593c0045303a2575206c656e3d25752074733d98
:10594c00256c6c75206d7325730d0a0045313a2555
:10595c0075206c656e3d25752074733d256c6c75da
:10596c00206d7325730d0a00425244520100000051
:10597c003a2073686f7720546573742067726f7563
:10598c007020636f6d6d616e6473000074696d657a
:10599c007374616d700000003a2073686f77206239
:1059ac0075696c642074696d657374616d70000049
:1059bc00757074696d6500003a2074696d652073ab
:1059cc00696e636520626f6f742f6c6173742072e3
:1059dc00657365742028642068683a6d6d3a73733a
:1059ec0029000000697064756d7000003a206475c0
:1059fc006d70207278206970207061636b657473b0
:105a0c002028303a6f666620313a6574683020324f
:105a1c003a6574683120333a626f7468290000006b
:105a2c003a2073686f772054582f525820636f7543
:105a3c006e7465727320666f7220657468302061b5
:105a4c006e642065746831006d656d696e666f00fb
:105a5c003a2066726565206d656d6f7279206f6e88
:105a6c002074686520432d72756e74696d652068ad
:105a7c0065617020616e6420746865205443502ffa
:105a8c00495020686561700064756d7000000000fd
:105a9c003a2064756d70206d656d6f727920286485
:105aac00756d70203c616464725f6865783e203c63
:105abc00636f756e743e29007065656b00000000a5
