:020000040000fa
:10000000f8ff0320995a02007dfb020081fb0200e9
:1000100089fb02008dfb020091fb02000000000042
:1000200000000000000000000000000079fb02005a
:1000300085fb02000000000079fb020079fb020052
:1000400079fb020079fb020079fb020079fb0200d8
:1000500079fb020079fb020079fb020079fb0200c8
:1000600079fb020079fb020079fb020079fb0200b8
:1000700079fb020079fb020079fb020079fb0200a8
:1000800079fb020079fb020079fb020079fb020098
:1000900079fb020079fb020079fb020079fb020088
:1000a00079fb020079fb020079fb020079fb020078
:1000b00079fb020079fb020079fb0200d19f02006c
:1000c00025a0020079fb020079fb020079fb020007
:1000d00079fb020079fb020079fb020079fb020048
:1000e00079fb020079fb0200000000000000000024
:1000f0000000000079fb0200f9c20100f9c2010012
:10010000f9c20100f9c20100e1a40200e1a4020069
:10011000e1a40200e1a4020079fb020079fb0200e5
:1001200079fb020079fb020079fb020079fb0200f7
:1001300079fb020079fb020079fb020079fb0200e7
:1001400079fb020079fb020079fb020079fb0200d7
:1001500079fb020079fb020079fb020079fb0200c7
:1001600079fb020079fb020079fb020079fb0200b7
:1001700079fb020079fb020079fb020079fb0200a7
:1001800079fb020079fb020079fb020079fb020097
:10019000c1d4020079fb020079fb020079fb020066
:1001a00079fb020079fb020079fb020079fb020077
:1001b00079fb020079fb020079fb020079fb020067
:1001c00079fb020079fb020079fb020079fb020057
:1001d00079fb020079fb020079fb020079fb020047
:1001e00079fb020079fb020079fb020051d6020084
:1001f00079fb020079fb020079fb020079fb020027
:1002000079fb020079fb020079fb020079fb020016
:1002100079fb020079fb020079fb020079fb020006
:1002200079fb020079fb020079fb020079fb0200f6
:1002300079fb020079fb020079fb020079fb0200e6
:1002400079fb020079fb020079fb020079fb0200d6
:1002500079fb020079fb020079fb020079fb0200c6
:0402600079fb020024
:020000040000fa
:10026400f8b500bff8bc08bc9e467047e1b4020074
:10027400f8b500bff8bc08bc9e467047bdb4020088
:020000040000fa
:08028400304e010001000000f2
:020000040000fa
:10028c00504859204173736572743a2025732c20a1
:10029c00696e206c696e653a2025642c200d0a006d
:1002ac0050485920436f6e643a2025732c20696e98
:1002bc00206c696e653a2025642c200d0a00000024
:1002cc004452565f504859206f7065726174696f63
:1002dc006e206572726f723a2025640d0a00000060
:1002ec004452562050485920696e697420666169e1
:1002fc006c65643a2025640d0a000000474d4143ab
:10030c0000000000436869702d5265766973696f4f
:10031c006e000000504c43412d456e61626c65646b
:10032c0000000000504c43412d53746174757300f0
:10033c00504c43412d4e6f6465496400504c434111
:10034c002d4e6f6465436f756e740000504c4341c5
:10035c002d4275727374436f756e7400504c43412b
:10036c002d427572737454696d6572005443362d49
:10037c004368756e6b53697a6500000054582d43c1
:10038c0075745468726f75676800000052582d437d
:10039c0075745468726f75676800000050726f6de9
:1003ac00697363756f75730053504920467265719c
:1003bc0075656e63790000005b736b6970706564c2
:1003cc0020256c755d0d0a00257300004c414e38dc
:1003dc003635785f25642000537461747573302e44
:1003ec005472616e736d69742050726f746f636fa9
:1003fc006c204572726f720d0a00000053746174a8
:10040c007573302e5472616e736d6974204275660b
:10041c00666572204f766572666c6f7720457272d6
:10042c006f720d0a00000000537461747573302ee6
:10043c005472616e736d69742042756666657220c4
:10044c00556e646572666c6f77204572726f720db3
:10045c000a000000537461747573302e5265636525
:10046c0069766520427566666572204f76657266a0
:10047c006c6f77204572726f720d0a005374617441
:10048c007573302e4c6f7373206f66204672616dde
:10049c00696e67204572726f720d0a005374617435
:1004ac007573302e486561646572204572726f7287
:1004bc000d0a0000537461747573302e52657365a8
:1004cc007420436f6d706c6574650d0a000000003c
:1004dc00537461747573302e50485920496e74658d
:1004ec0072727570740d0a00537461747573302eca
:1004fc005472616e736d69742054696d65737461a7
:10050c006d70204361707475726520417661696c01
:10051c0061626c6520410d0a000000005374617427
:10052c007573302e5472616e736d69742054696ddd
:10053c00657374616d7020436170747572652041d0
:10054c007661696c61626c6520420d0a00000000e6
:10055c00537461747573302e5472616e736d69745b
:10056c002054696d657374616d702043617074758e
:10057c00726520417661696c61626c6520430d0a7d
:10058c0000000000537461747573302e5472616ee8
:10059c00736d6974204672616d6520436865636b89
:1005ac002053657175656e6365204572726f720daf
:1005bc000a000000537461747573302e436f6e74af
:1005cc00726f6c20446174612050726f7465637437
:1005dc00696f6e204572726f720d0a0053746174ec
:1005ec007573302e556e6b6e6f776e204269743d4d
:1005fc002564207265672d76616c3d307825640d1d
:10060c000a000000436f6e66696730207265676987
:10061c00737465722072656164206661696c6564cf
:10062c000d0a0000537461747573312e52585f4e6d
:10063c006f6e5f5265636f76657261626c655f4564
:10064c0072726f720d0a0000537461747573312edf
:10065c0054585f4e6f6e5f5265636f766572616260
:10066c006c655f4572726f720d0a00005374617491
:10067c007573312e46534d5f53746174655f4572cb
:10068c00726f720d0a000000537461747573312e11
:10069c005352414d5f4543435f4572726f720d0a71
:1006ac0000000000537461747573312e556e6465cf
:1006bc0072766f6c746167650d0a00005374617417
:1006cc007573312e496e7465726e616c5f42757311
:1006dc005f4572726f720d0a0000000053746174f2
:1006ec007573312e54585f54696d657374616d70f8
:1006fc005f436170747572655f4f766572666c6f7f
:10070c00775f410d0a000000537461747573312ecc
:10071c0054585f54696d657374616d705f4361709b
:10072c00747572655f4f766572666c6f775f420d9c
:10073c000a000000537461747573312e54585f5461
:10074c00696d657374616d705f436170747572650a
:10075c005f4f766572666c6f775f430d0a00000021
:10076c00537461747573312e54585f54696d65738d
:10077c0074616d705f436170747572655f4d697300
:10078c007365645f410d0a00537461747573312e87
:10079c0054585f54696d657374616d705f4361701b
:1007ac00747572655f4d69737365645f420d0a0001
:1007bc00537461747573312e54585f54696d65733d
:1007cc0074616d705f436170747572655f4d6973b0
:1007dc007365645f430d0a00537461747573312e35
:1007ec004d434c4b5f47454e5f5374617475730dad
:1007fc000a000000537461747573312e67505450a5
:10080c005f50415f54535f45475f53746174757318
:10081c000d0a0000537461747573312e457874653c
:10082c006e6465645f426c6f636b5f537461747567
:10083c00730d0a00537461747573312e556e6b6ea3
:10084c006f776e4572726f720d0a00005365747487
:10085c00696e67206661696c65642c2061646472e2
:10086c003d307825580d0a00457874426c6f636be7
:10087c002e5350495f4572725f496e740d0a000029
:10088c00457874426c6f636b2e4d41435f424d470c
:10089c00525f496e740d0a00457874426c6f636b3d
:1008ac002e4d41435f496e740d0a00004578744229
:1008bc006c6f636b2e484d585f496e740d0a0000c7
:1008cc00457874426c6f636b2e47494e545f4d6193
:1008dc00736b0d0a00000000457874426c6f636bfb
:1008ec002e556e6b6e6f776e4572726f720d0a00bd
:1008fc0046696e616c2073657474696e67206661fd
:10090c00696c65640d0a0000496e76616c6964203f
:10091c004d41435048592c206f75693d307825580e
:10092c002c206d6f64656c3d307825580d0a0000e5
:10093c00496e76616c6964204368697020526576f3
:10094c006973696f6e0d0a00636869705f65727216
:10095c006f722120506c6561736520636f6e7461da
:10096c006374206d6963726f63686970207375704e
:10097c00706f727420666f72207265706c61636543
:10098c006d656e742e0d0a005443364572726f728b
:10099c005f5375636365656465640d0a0000000050
:1009ac005443364572726f725f4e6f486172647752
:1009bc006172650d0a0000005443364572726f7205
:1009cc005f556e657870656374656453760d0a00c7
:1009dc005443364572726f725f556e6578706563fd
:1009ec00746564447645760d0a0000005443364520
:1009fc0072726f725f426164436865636b73756d8d
:100a0c000d0a00005443364572726f725f556e6565
:100a1c00787065637465644374726c0d0a00000031
:100a2c005443364572726f725f426164547844610c
:100a3c0074610d0a000000005443364572726f72e7
:100a4c005f53796e634c6f73740d0a0054433645d3
:100a5c0072726f725f5370694572726f720d0a0019
:100a6c005443365f4572726f7220756e6b6e6f7782
:100a7c006e5f666c61673d25640d0a004c414e3813
:100a8c003635583000000000644d49494d20417303
:100a9c00736572743a2025732c20696e206c696e14
:100aac00653a2025642c200d0a000000496e766101
:100abc006c69642064726976657220696e73746106
:100acc006e636500496e7374616e636520616c7250
:100adc006561647920696e2075736500496e766175
:100aec006c69642044726976657220496e73746116
:100afc006e63650057617320746865206472697653
:100b0c00657220696e697469616c697a65643f000d
:100b1c00496e76616c69642044726976657220480e
:100b2c00616e646c650000004661696c65642074dc
:100b3c006f2067657420636c69656e74206d7574c5
:100b4c006578206c6f636b004661696c656420741a
:100b5c006f20676574207265736f75726365206ca6
:100b6c006f636b00496e73756666696369656e7455
:100b7c00205175657565204465707468000000002f
:100b8c00454d763100000000544350204e554c4cde
:100b9c002064796e616d696320616c6c6f63617444
:100bac00696f6e2068616e646c652f696e69742064
:100bbc006461746100000000205443502044796e3d
:100bcc00616d696320616c6c6f636174696f6e2019
:100bdc006661696c656400006664622066756c6ca5
:100bec000000000025732c20616464726573733af5
:100bfc002025730d0a0000006661696c20616c6c25
:100c0c006f63000025732c207061636b6574733afd
:100c1c0020256c750d0a000025732c206465736308
:100c2c00726970746f72733a20256c750d0a00002e
:100c3c006661696c204d54550000000025732c2012
:100c4c0073697a653a20256c750d0a006661696cca
:100c5c002053697a65000000706b7420706f6f6ca4
:100c6c0020656d70747900006463707420706f6f10
:100c7c006c20656d707479006661696c206c6f63b3
:100c8c006b000000656e74727920616464656400a9
:100c9c00656e747279206578706972656400000005
:100cac00756e6b6e6f776e210d0a0000427269646f
:100cbc006765206576656e743a2025732c20746ff9
:100ccc0074616c206576656e74733a2025640d0a28
:100cdc0000000000737461746963000064796e61d4
:100cec006d6963006578740076616c69640000005e
:100cfc00696e76616c69640073746174757300005d
:100d0c007374617475733a2025640d0a0000000039
:100d1c007374617473000000636c72006661696cbb
:100d2c00656420746f20676574207374617473211b
:100d3c000d0a000073746174732072657475726ea1
:100d4c0065643a2025640d0a0000000009206661e4
:100d5c00696c506b74416c6c6f633a2025642c2069
:100d6c006661696c44637074416c6c6f633a2025e6
:100d7c00642c206661696c4c6f636b733a2025643c
:100d8c002c2066646246756c6c3a2025640d0a0052
:100d9c0009206661696c4d61633a2025642c2066dc
:100dac0061696c4d74753a2025642c206661696c00
:100dbc0053697a653a2025640d0a00000920616c9c
:100dcc006c6f635061636b6574733a2025642c20df
:100ddc0066726565645061636b6574733a20256453
:100dec002c2061636b5061636b6574733a202564ce
:100dfc002c2064656c61795061636b6574733a2067
:100e0c0025640d0a000000000920706b74506f6f90
:100e1c006c53697a653a2025642c20706b74506f82
:100e2c006f6c4c6f7753697a653a2025642c20706f
:100e3c006b74506f6f6c456d7074793a2025640d2e
:100e4c000a000000092064637074506f6f6c536962
:100e5c007a653a2025642c2064637074506f6f6c33
:100e6c004c6f7753697a653a2025642c2064637043
:100e7c0074506f6f6c456d7074793a2025640d0a4f
:100e8c00000000000920706f7274202564207374b8
:100e9c006174733a0d0a0000090920706b74732099
:100eac0072656365697665643a2025642c206465f7
:100ebc007374206d652d75636173743a2025642cf1
:100ecc002064657374206e6f746d652d756361732a
:100edc00743a2025642c2064657374206d636173ef
:100eec00743a2025640d0a00090920706b74732074
:100efc0072657365727665643a2025642c2066777a
:100f0c00642075636173743a2025642c20667764c1
:100f1c00206d636173743a2025642c2066776420fd
:100f2c006469726563743a2025640d0a0000000040
:100f3c007265676973746572000000007265676999
:100f4c007374657220726573756c743a20307825f1
:100f5c003038780d0a000000726567697374657229
:100f6c00656420616c72656164793a203078253053
:100f7c0038780d0a00000000646572656769737447
:100f8c006572000064652d72656769737465722003
:100f9c00726573756c743a2025640d0a00000000ac
:100fac006e6f742072656769737465726564210d68
:100fbc000a0000006664620073686f77000000002e
:100fcc0046444220656e74726965733a2025640d3f
:100fdc000a0000000d0a09456e747279206e756d59
:100fec006265723a2025640d0a00000009456e7492
:100ffc00727920646573744164643a2025730d0a18
:10100c00000000006e6f6e65000000002c20257340
:10101c00000000002c20706f7274202573000000fb
:10102c0009456e74727920666c6167733a2030786a
:10103c00253032783a2025730d0a000009456e746c
:10104c007279206c6561726e20706f72743a202513
:10105c00640d0a0009456e747279206f7574506fb7
:10106c0072744d61705b25645d3a2000257320001d
:10107c0009456e74727920744578706972653a20ee
:10108c003078253038780d0a0000000009456e7460
:10109c007279206677645061636b6574733a2025ae
:1010ac006c750d0a0000000075736167653a20626b
:1010bc007269646765207374617475730d0a00003e
:1010cc0075736167653a2062726964676520737431
:1010dc00617473203c636c723e0d0a00757361671a
:1010ec00653a20627269646765207265676973741a
:1010fc006572203c706172616d3e0d0a000000004b
:10110c0075736167653a206272696467652066640d
:10111c00622073686f770d0a0000000073756363bb
:10112c00657373007463702074726163652025733a
:10113c0020666f7220736f636b65743a2025642090
:10114c0025730d0a0000000075736167653a207401
:10115c0063707472616365206f6e2f6f6666206eac
:10116c000d0a000054435020736f636b6574733a1f
:10117c00202564200d0a000009736b7449783a200d
:10118c0025642c20616464547970653a2025642ca4
:10119c002072656d6f7465506f72743a2025642ce3
:1011ac00206c6f63616c506f72743a2025642c2034
:1011bc00666c6167733a203078253032780d0a00fe
:1011cc0009727853697a653a2025642c2074785317
:1011dc00697a653a2025642c2073746174653a2011
:1011ec0025642c20727850656e643a2025642c207e
:1011fc00747850656e643a2025640d0a0000000076
:10120c0075736167653a2074637020696e666f2030
:10121c003c6e3e0d0a00000055736167653a206d07
:10122c006163696e666f200d0a00000045783a20f4
:10123c006d6163696e666f200d0a0000496e7465fe
:10124c0072666163653a2025732044726976657213
:10125c0020537461746973746963730d0a00000020
:10126c000d0a205265636569766520537461746953
:10127c0073746963730d0a0009206e52784f6b50ba
:10128c0061636b6574733a2025640d0a09206e52f4
:10129c007850656e64427566666572733a20256493
:1012ac000d0a09206e527853636865644275666650
:1012bc006572733a2025640d0a00000009206e52f5
:1012cc00784572726f725061636b6574733a202546
:1012dc00640d0a09206e5278467261676d656e74f2
:1012ec004572726f72733a2025640d0a09206e5292
:1012fc0078427566664e6f74417661696c61626c9a
:10130c00653a2025640d0a000d0a205472616e7333
:10131c006d697420537461746973746963730d0a15
:10132c000000000009206e54784f6b5061636b65b0
:10133c0074733a2025640d0a09206e547850656e3a
:10134c0064427566666572733a2025640d0a09203d
:10135c006e54784572726f725061636b6574733a38
:10136c002025640d0a09206e547851756575654603
:10137c00756c6c3a2025640d0a0d0a00096e6f74a9
:10138c0020737570706f727465640d0a0000000034
:10139c00496e746572666163653a202573204861f5
:1013ac007264776172652052656769737465722027
:1013bc005374617475730d0a0000000009202573c5
:1013cc003a20307825780d0a0000000050696e67cd
:1013dc003a20646f6e652e2053656e742025642050
:1013ec0072657175657374732c20726563656976ab
:1013fc006564202564207265706c6965732e0d0a16
:10140c000000000050696e672055736167653a20d3
:10141c0070696e67203c73746f703e2f3c6e616d0b
:10142c00652f616464726573733e203c6920696e3c
:10143c00746572666163653e203c6e206e50696e09
:10144c0067733e203c74206d73506572696f643e07
:10145c00203c732073697a653e0d0a0073746f70bb
:10146c000000000050696e673a20636f6d6d616e0d
:10147c006420696e2070726f67726573732e2052d0
:10148c0065747279206c617465722e0d0a0000000f
:10149c0050696e673a20486f7374206e616d6520d9
:1014ac00746f6f206c6f6e672e2052657472792e7c
:1014bc000d0a000050696e673a2044617461207314
:1014cc00697a6520746f6f206269672e204d617890
:1014dc003a2025642e2052657472790d0a000000a2
:1014ec0050696e673a20556e6b6e6f776e20706127
:1014fc0072616d657465720d0a00000050696e674b
:10150c003a207265736f6c76696e6720686f7374be
:10151c003a2025730d0a0000556e6b6e6f776e20a6
:10152c006865617020747970652e205573653a205a
:10153c005b312c2025645d0d0a0000004e6f206885
:10154c0065617020696e666f2065786973747320ad
:10155c00666f7220747970653a202573210d0a002c
:10156c004865617020747970653a2025732e204986
:10157c006e697469616c206372656174656420685e
:10158c006561702073697a653a202564204279740c
:10159c0065730d0a00000000416c6c6f6361626c36
:1015ac006520626c6f636b20686561702073697a6b
:1015bc00653a2025642042797465730d0a00000099
:1015cc00416c6c20617661696c61626c6520686548
:1015dc0061702073697a653a2025642042797465bc
:1015ec00732c20686967682077617465726d61720d
:1015fc006b3a2025640d0a004c6173742068656198
:10160c0070206572726f723a20307825780d0a005e
:10161c004e6f20547261636520696e666f20657829
:10162c00697374732e0d0a00537461636b207570ab
:10163c00206661696c65640d0a0000005374616377
:10164c006b207570207375636365656465640d0a42
:10165c000000000055736167653a20737461636b19
:10166c00203c75702f646f776e3e203c70726573f2
:10167c00657276653e0d0a0045783a207374616395
:10168c006b20646f776e2070726573657276650d72
:10169c000a000000537461636b20616c72656164b5
:1016ac0079207570210d0a005475726e2053746187
:1016bc00636b20646f776e20616e64207468656e56
:1016cc00207570210d0a0000526573746172746983
:1016dc006e672074686520737461636b207769741e
:1016ec006820256420696e74657266616365287371
:1016fc00290d0a00537461636b20646f776e3a2076
:10170c0063616e6e6f742067657420612073746101
:10171c00636b2068616e646c650d0a0053746163c1
:10172c006b20646f776e20646f6e650d0a0000008d
:10173c0055736167653a206966203c696e74657201
:10174c00666163653e203c646f776e2f75703e203a
:10175c000d0a000045783a2069662050494333321f
:10176c00494e5420646f776e200d0a00556e6b6ed7
:10177c006f776e20696e7465726661636520737035
:10178c0065636966696564200d0a000054686973b5
:10179c0020696e7465726661636520616c72656147
:1017ac0064792075700d0a004f7065726174696ff1
:1017bc006e206661696c65642e204e6f20636f6ebf
:1017cc0066696775726174696f6e0d0a00000000be
:1017dc005468697320696e74657266616365206113
:1017ec006c726561647920646f776e0d0a0000007d
:1017fc0057726f6e6720706172616d6574657220cf
:10180c00737065636966696564200d0a00000000e9
:10181c004f7065726174696f6e2073756363657365
:10182c007366756c210d0a004f7065726174696f77
:10183c006e206661696c6564210d0a0055736167e1
:10184c00653a207365746d6163203c696e746572d2
:10185c00666163653e203c783a783a783a783a7813
:10186c003a783e200d0a000045783a207365746d75
:10187c006163205049433332494e542061613a62ce
:10188c00623a63633a64643a65653a6666200d0aa7
:10189c0000000000617267765b325d3a2025730da3
:1018ac000a000000496e76616c6964204d4143204a
:1018bc006164647265737320737472696e67200d52
:1018cc000a000000536574204d414320616464722a
:1018dc00657373206661696c65640d0a0000000015
:1018ec005365742042494f53204e616d65204f4b18
:1018fc000d0a00005365742042494f53204e616d10
:10190c0065206661696c65640d0a0000557361673a
:10191c00653a2073657462696f73203c696e7465f7
:10192c0072666163653e203c782e782e782e783e68
:10193c00200d0a0045783a2073657462696f732034
:10194c005049433332494e54204d434850424f4145
:10195c0052445f3239200d0a000000005365742098
:10196c006761746577617920616464726573732053
:10197c004f4b0d0a000000005365742067617465bd
:10198c007761792061646472657373206661696c38
:10199c0065640d0a0000000055736167653a207399
:1019ac0065746777203c696e746572666163653e29
:1019bc00203c697076342f362061646472657373d1
:1019cc003e203c76616c696454696d653e200d0a5d
:1019dc000000000045783a20736574677720504901
:1019ec00433332494e54203139322e3136382e3071
:1019fc002e31200d0a000000496e76616c6964205e
:101a0c004950206164647265737320737472696edb
:101a1c0067200d0a00000000536574206970206176
:101a2c00646472657373204f4b0d0a005365742008
:101a3c0069702061646472657373206661696c659a
:101a4c00640d0a0055736167653a2073657469709b
:101a5c00203c696e746572666163653e203c6970fa
:101a6c0076342f3620616464726573733e203c6952
:101a7c007076346d61736b2f697076362070726579
:101a8c00666978206c656e3e0d0a000045783a2038
:101a9c007365746970205049433332494e54203178
:101aac0039322e3136382e302e38203235352e3212
:101abc0035352e3235352e30200d0a004e6f207301
:101acc0075636820696e74657266616365206973fd
:101adc002075700d0a000000416e2061646472650f
:101aec007373207365727669636520697320616c0a
:101afc0072656164792072756e6e696e672e205303
:101b0c00746f7020444843502c205a434c4c2c206a
:101b1c006574632e2066697273740d0a00000000f0
:101b2c00496e76616c6964204950206d61736b203d
:101b3c00737472696e67200d0a000000557361673b
:101b4c00653a20736574646e733420696620616431
:101b5c0064203c312f323e0d0a00000045783a20bb
:101b6c00736574646e733420657468302031393257
:101b7c002e3136382e312e310d0a0000556e6b6e1b
:101b8c006f776e20696e7465726661636520737021
:101b9c00656369666965640d0a000000496e7661cb
:101bac006c69642049507634206164647265737387
:101bbc0020737472696e670d0a000000556e6b6eaf
:101bcc006f776e20444e5320696e6465780d0a0061
:101bdc0053657420444e53202564206164647265ff
:101bec0073732025730d0a007375636365737366d5
:101bfc00756c00006661696c656421004e6f6e65e2
:101c0c0000000000736574006765740044656661cc
:101c1c00756c7420696e746572666163652073659a
:101c2c00742025730d0a000044656661756c742080
:101c3c00696e746572666163652069733a202573f9
:101c4c000d0a000055736167653a206465666e6520
:101c5c0074207365742f676574203c696e746572ab
:101c6c00666163653e0d0a0045783a206465666ed0
:101c7c0065742073657420657468300d0a0000006b
:101c8c0055500000444f574e000000004e6f74201a
:101c9c005265616479000000556e6b6e6f776e2033
:101cac00696e746572666163650d0a002d2d2d2dac
:101cbc002d2d2d2d2d2d20496e7465726661636559
:101ccc00203c25732f25733e28256429202d2d2d8e
:101cdc002d2d2d2d2d2d2d0d0a000000496e746516
:101cec00726661636520697320646f776e0d0a00fc
:101cfc00486f7374204e616d653a202573202d203a
:101d0c004e424e532064697361626c6564200d0a07
:101d1c00000000004950763420416464726573738e
:101d2c003a2025730d0a00004d61736b3a20257320
:101d3c000d0a0000476174657761793a2025730daf
:101d4c000a000000444e53313a2025730d0a00005e
:101d5c00444e53323a2025730d0a00004d41432066
:101d6c00416464726573733a2025730d0a00000098
:101d7c0064656661756c7420495020616464726599
:101d8c00737300002573206973204f4e0d0a0000f9
:101d9c004c696e6b2069732025730d0a00000000de
:101dac005374617475733a2025730d0a000000009a
:101dbc0050696e673a2077726f6e67207265706c2f
:101dcc00792072656365697665642e204d61736b4d
:101ddc003a2030782532780d0a00000050696e6781
:101dec003a207265706c795b25645d2066726f6d4c
:101dfc002025733a2074696d65203d2025646d7330
:101e0c000d0a000050696e673a20444e53206661fb
:101e1c00696c75726520666f722025730d0a00005f
:101e2c00444e53204c6f6f6b75703a20444e5320c8
:101e3c006661696c75726520666f722025732c2043
:101e4c006572723a2025640d0a000000444e53203e
:101e5c004c6f6f6b75703a20726571756573742079
:101e6c0074696d656f75742e0d0a00004c6f6f6b85
:101e7c00757020416e737765723a0d0a2d2d2d2ddc
:101e8c002d2d2d2d2d2d2d2d2d2d2d2d2d2d2d2d76
:101e9c002d2d0d0a000000004e6f204c6f6f6b75de
:101eac007020656e74727920666f72205b25735d8d
:101ebc000d0a00005b25735d2041204950763420cb
:101ecc00416464726573733a2025642e25642e2553
:101edc00642e25640d0a00005b25735d2041414191
:101eec0041204950763620416464726573733a2000
:101efc0025730d0a00000000656e61626c650000c0
:101f0c00656e61626c65640064697361626c650026
:101f1c0064697361626c65640000000055736167ed
:101f2c00653a20646e7363203c64656c2f696e6641
:101f3c006f2f6f6e2f6f66662f6c6f6f6b75703ea9
:101f4c00200d0a0055736167653a202573203c6f9c
:101f5c006e2f6f66663e203c696e746572666163b7
:101f6c00653e203c7374726963742f707265663eb3
:101f7c002f3c636c6561723e200d0a0045783a2057
:101f8c002573206f6e20657468300d0a0000000008
:101f9c0073747269637400007072656600000000ef
:101fac00636c656172000000556e6b6e6f776e200e
:101fbc006f7074696f6e0d0a000000002573202588
:101fcc00730d0a004661696c656420746f2025737b
:101fdc002025730d0a00000055736167653a206473
:101fec006e7363206c6f6f6b7570203c74797065c9
:101ffc003e203c686f73744e616d653e200d0a0087
:10200c0048656c703a203c686f73744e616d653e28
:10201c002855524c29202d206c6f6f6b2075702029
:10202c00666f7220686f73746e616d650d0a0000c7
:10203c0048656c703a203c747970653e203a20619a
:10204c00206f72204120666f7220495076342061d7
:10205c00646472657373206c6f6f6b75700d0a001e
:10206c0048656c703a203c747970653e203a20616a
:10207c00616161206f72204141414120666f722085
:10208c00495076362061646472657373206c6f6f8f
:10209c006b75700d0a00000048656c703a203c743a
:1020ac007970653e203a20616e7920666f722062ed
:1020bc006f7468204950763420616e6420495076e4
:1020cc00362061646472657373206c6f6f6b75700e
:1020dc000d0a0000646e7363206c6f6f6b75703a41
:1020ec0020636f6d6d616e6420696e2070726f6716
:1020fc00726573732e205265747279206c617465ed
:10210c00722e0d0a00000000414141410000000008
:10211c006161616100000000414e5900616e7900ff
:10212c00646e7363206c6f6f6b75703a205b2573f4
:10213c005d204c6f6f6b75702054797065206e6fdd
:10214c007420737570706f727465642e0d0a0000c4
:10215c00646e7363206c6f6f6b75703a20486f738d
:10216c0074206e616d6520746f6f206c6f6e672ebe
:10217c002052657472792e0d0a000000646e736330
:10218c00206c6f6f6b75703a207265736f6c76692b
:10219c006e6720686f73743a20257320666f722007
:1021ac00747970653a202573200d0a0055736167a8
:1021bc00653a20646e73632064656c203c686f73b1
:1021cc00744e616d653e7c616c6c200d0a000000e4
:1021dc0048656c703a203c686f73744e616d653e57
:1021ec002855524c29202d2052656d6f7665207430
:1021fc00686520656e7472792069662065786973ec
:10220c007473200d0a00000048656c703a20616cf4
:10221c006c202d2052656d6f766520616c6c20747e
:10222c006865207265736f6c76656420656e747278
:10223c0079200d0a00000000616c6c005b25735d59
:10224c00206e6f742070617274206f6620746865e4
:10225c0020444e5320436163686520656e74727927
:10226c00200d0a00496e636f6d706c657465206398
:10227c006f6d6d616e64200d0a000000557361670f
:10228c00653a20646e736320696e666f200d0a00d8
:10229c0048656c703a20646973706c61792074685d
:1022ac006520444e5320636163686520656e7472cb
:1022bc00792064657461696c73200d0a000000005c
:1022cc00444e5320436c69656e7420697320646faf
:1022dc00776e210d0a000000444e5320436c696553
:1022ec006e74204946202d205374726963743a2011
:1022fc0025732c205072656665727265643a2025d0
:10230c00730d0a00444e5320436c69656e74202d86
:10231c002074696d653a2025642c2070656e6469a3
:10232c006e673a2025642c2063757272656e743a60
:10233c002025642c20746f74616c3a2025640d0a7e
:10234c0000000000486f73746e616d65203d2025a0
:10235c0073200d0a54696d656f7574203d202564da
:10236c00200d0a0049507634203d25730d0a0000db
:10237c002d2d2d2d2d2d2d2d2d2d2d2d2d2d2d2d81
:10238c002d2d2d2d2d2d2d2d2d2d2d2d2d2d2d2d71
:10239c002d2d2d2d2d2d2d2d2d2d2d2d2d2d2d2d61
:1023ac002d2d2d2d0d0a000049507636203d20256f
:1023bc00730d0a004e6f20444e5320436c69656eba
:1023cc007420436163686520656e7472696573205f
:1023dc000d0a0000496e76616c696420496e707557
:1023ec007420436f6d6d616e64203a5b2025732001
:1023fc005d200d0a0000000055736167653a2025c9
:10240c0073203c696e746572666163653e203c6f37
:10241c006e2f6f66663e200d0a00000045783a204c
:10242c002573205049433332494e54206f6e200d92
:10243c000a000000556e6b6e6f776e2073657276b6
:10244c006963652025730d0a000000003a2073743f
:10245c0061636b20636f6d6d616e647300000000cf
:10246c0074637069700000004661696c6564207467
:10247c006f2063726561746520544350495020434a
:10248c006f6d6d616e64730d0a000000544350490a
:10249c005020636f6d6d616e6473207461736b207b
:1024ac00726567697374726174696f6e20666169b5
:1024bc006c65640d0a000000696e7465726e616c67
:1024cc0000000000706f6f6c000000006578746590
:1024dc00726e616c0000000064656c006c6f6f6b59
:1024ec0075700000646566006677640066696c74dc
:1024fc00000000006e6574696e666f003a204765d7
:10250c0074206e6574776f726b20696e666f726d76
:10251c006174696f6e0000006465666e657400001e
:10252c003a205365742f4765742064656661756c39
:10253c007420696e74657266616365007a636c6c95
:10254c00000000003a205475726e205a434c4c2007
:10255c006f6e2f6f66660000736574646e73340063
:10256c003a2053657420444e5320495076342061f0
:10257c0064647265737300007365746970000000a5
:10258c003a205365742049502061646472657373fa
:10259c0020616e64206d61736b000000736574675d
:1025ac00770000003a2053657420476174657761a9
:1025bc0079206164647265737300000073657462e2
:1025cc00696f73003a2053657420686f73742773b6
:1025dc00204e657442494f53206e616d65000000ba
:1025ec007365746d616300003a20536574204d412e
:1025fc0043206164647265737300000069660000b7
:10260c003a204272696e6720616e20696e74657241
:10261c00666163652075702f646f776e0000000033
:10262c00737461636b0000003a20537461636b2018
:10263c007475726e206f6e2f6f66660068656170c0
:10264c00696e666f000000003a20436865636b207a
:10265c0068656170207374617475730070696e675e
:10266c00000000003a2050696e6720616e204950ce
:10267c00206164647265737300000000646e7363a0
:10268c00000000003a20444e5320636c69656e7460
:10269c0020636f6d6d616e64730000006d61636922
:1026ac006e666f003a20436865636b204d41432092
:1026bc00737461746973746963730000746370007c
:1026cc003a2054435020636f6d6d616e647300004b
:1026dc007463707472616365000000003a20456e8b
:1026ec0061626c6520544350207472616365000014
:1026fc003a20427269646765000000002d7478000e
:10270c006970657266733a2073697a652072616ebe
:10271c006765206572726f72210d0a002d72780048
:10272c002d2d696e646578006970657266733a2048
:10273c00696e6465782072616e6765206572726f70
:10274c0072210d0a0000000055736167653a20691b
:10275c007065726673203c2d74782073697a653ebf
:10276c00203c2d72782073697a653e203c2d6920bf
:10277c00696e6465783e0d0a000000000d0a6970f0
:10278c006572663a20496e76616c69642073657374
:10279c0073696f6e206e756d6265722e204d696e59
:1027ac003a20302c204d61783a2025640d0a000027
:1027bc006970657266733a2030203c2073697a65c3
:1027cc00203c2036353533360d0a000069706572b1
:1027dc0066733a204f4b2c20696e7374616e63657f
:1027ec002025642074782073697a6520697320250c
:1027fc00640d0a006970657266733a204f4b2c2089
:10280c00696e7374616e6365202564207278207321
:10281c00697a652069732025640d0a0069706572f8
:10282c00666b3a205573696e6720696e6465782013
:10283c00300d0a0069706572666b3a20696e6465ca
:10284c00782072616e6765206572726f72210d0a55
:10285c000000000055736167653a20697065726607
:10286c006b203c2d6920696e6465783e0d0a000072
:10287c000d0a69706572662073657373696f6e3ac1
:10288c00206e6f742073746172746564210d0a007c
:10289c000d0a69706572663a20747279696e6720e8
:1028ac00746f2073746f7020697065726620696e26
:1028bc007374616e63652025642e2e2e0d0a000044
:1028cc0055736167653a20697065726669202d6180
:1028dc002061646472657373203c2d6920696e6499
:1028ec0065783e0d0a0000006970657266693a20d1
:1028fc0075736520612076616c6964204950206194
:10290c00646472657373210d0a000000697065724e
:10291c0066693a20696e6465782072616e6765201d
:10292c006572726f72210d0a000000006970657289
:10293c0066693a20556e6b6e6f776e2070617261ae
:10294c006d657465720d0a000d0a697065726669b1
:10295c003a2063616e6e6f74206368616e676520e8
:10296c007468652069702061646472657373207784
:10297c0068696c652073657373696f6e3a202564a2
:10298c002072756e6e696e67210d0a006970657232
:10299c0066693a204f4b2c2073657420746865204f
:1029ac004950206164647265737320746f20696e82
:1029bc007374616e63653a2025640d0a0000000093
:1029cc00202020202d205b25326c752d2025326c8b
:1029dc0075207365635d2025336c752f2025336c52
:1029ec0075202825326c752525292020202025349a
:1029fc006c75204b6270730d0a00000020202020a3
:102a0c002d205b302e302d20256c752e256c7520dd
:102a1c007365635d2025336c752f2025336c752011
:102a2c002825326c752525292020202025346c750d
:102a3c00204b6270730d0a0069706572663a2069ea
:102a4c006e7374616e636520256420636f6d706caa
:102a5c0065746564202e2e2e000000000d0a69702e
:102a6c006572663a205761726e696e672c2054430a
:102a7c00502073657276657220646973636f6e6e35
:102a8c006563742064657465637465640d0a000085
:102a9c0069706572663a204661696c656420746f72
:102aac002067657420256420627974657320736fc8
:102abc00636b65742054582073706163650d0a0054
:102acc0069706572663a20536f636b657420736529
:102adc006e64206661696c65640d0a0069706572cc
:102aec006620696e7374616e63652025643a2054a8
:102afc007820646f6e652e20536f636b6574206352
:102b0c006c6f7365642e0d0a0000000069706572ad
:102b1c00663a20696e7374616e6365202564206368
:102b2c006f6d706c657465642e0d0a000d0a69700a
:102b3c006572663a20416c6c20696e7374616e63c9
:102b4c00657320627573792e205265747279206cce
:102b5c0061746572210d0a002d2d73657276657294
:102b6c00000000002d2d7564700000002d2d626199
:102b7c006e647769647468000a476976656e2069cb
:102b8c006e2042573a20256c752b256c753d256cb3
:102b9c00750000002d2d786d6974726174650000ec
:102bac002d2d636c69656e74000000002d2d746909
:102bbc006d6500002d2d6e756d0000002d5300000d
:102bcc002d2d746f730000000a476976656e2054d2
:102bdc004f532076616c75652069732025642c2019
:102bec006d547970654f66536572766963653a25e5
:102bfc00640000002d4d00002d2d6d73730000003e
:102c0c002d6900002d2d696e74657276616c000063
:102c1c002d7000002d2d706f727400002d6c000053
:102c2c002d2d6c656e00000069706572663a20543b
:102c3c006865206d696e696d756d2064617461677e
:102c4c0072616d2073697a652069732025640d0aa1
:102c5c000000000069706572663a205573696e67f2
:102c6c00207468652064656661756c7420696e7487
:102c7c00657266616365210d0a0000002d2d2d2df6
:102c8c002d2d2d2d2d2d2d2d2d2d2d2d2d2d2d2d68
:102c9c002d2d2d2d2d2d2d2d2d2d2d2d2d2d2d2d58
:102cac002d2d2d2d2d2d2d2d2d2d2d2d2d2d2d2d48
:102cbc002d2d2d2d2d0d0a0069706572663a20534d
:102ccc006572766572206c697374656e696e6720c7
:102cdc006f6e2000554450005443500020706f72aa
:102cec00742025640d0a00000d0a69706572663a3d
:102cfc00205374617274696e672073657373696fa6
:102d0c006e20696e7374616e63652025640d0a0014
:102d1c000d0a69706572663a20696e7374616e6330
:102d2c00652025642073746172746564202e2e2ec8
:102d3c000d0a0000202020202d204c6f63616c2098
:102d4c002025752e25752e25752e257520706f72f4
:102d5c007420257520636f6e6e65637465642077cf
:102d6c006974680d0a000000202020202d20526577
:102d7c006d6f74652025752e25752e25752e257580
:102d8c0020706f72742025750d0a00002020202001
:102d9c002d205461726765742072617465203d202a
:102dac00256c64206270732c20706572696f6420ce
:102dbc003d20256c64206d730d0a0000202020201e
:102dcc002d2d2d2d2d2d2d2d2d2d2d2d2d2d2d2d27
:102ddc002d2d2d2d2d2d2d2d2d2d2d2d2d2d2d2d17
:102dec002d2d2d2d2d2d2d2d2d0d0a00697065727b
:102dfc00663a20556e737570706f727465642043fb
:102e0c006f6e66696775726174696f6e0d0a00008a
:102e1c0069706572663a204372656174652054432b
:102e2c005020736f636b6574206661696c65640d0b
:102e3c000a00000069706572663a20536574206f51
:102e4c0066205258206275666665722073697a65d1
:102e5c00206661696c65640d0a000000697065721a
:102e6c00663a204372656174652055445020736f37
:102e7c00636b6574206661696c65640d0a00000003
:102e8c0069706572663a2050726f746f636f6c2054
:102e9c006572726f720d0a0069706572663a205520
:102eac0044502047657420417272617920466169f3
:102ebc006c65640d0a0000000d0a69706572663a53
:102ecc0020696e7374616e6365202564207365736d
:102edc0073696f6e2073746172746564202e2e2e6c
:102eec000d0a000069706572663a202d20466972e1
:102efc00737420706b74206964203d20256c6420f1
:102f0c002873686f756c642062652030290d0a0087
:102f1c0069706572663a2052656376206475706cd0
:102f2c0069636174656420706b740d0a00000000a5
:102f3c0069706572663a2052782074696d656420f8
:102f4c006f75740d0a0000000d0a697065726620b9
:102f5c00696e7374616e63652025643a2052782023
:102f6c00646f6e652e20536f636b657420636c6f9a
:102f7c007365642e0d0a0000697065726620696eb7
:102f8c007374616e63652025643a205265616479bf
:102f9c0020666f7220746865206e65787420736586
:102fac007373696f6e2e0d0a0000000069706572f4
:102fbc006620696e7374616e63652025643a2063c4
:102fcc006f6d706c657465642e0d0a0069706572a6
:102fdc00663a20636c69656e742073657373696ff0
:102fec006e20636c6f7365642e0d0a0069706572d8
:102ffc00663a2041525020756e61626c6520746f88
:10300c00207265736f6c766520746865204d414342
:10301c002061646472657373206f662072656d6fd6
:10302c00746520736964652e0d0a00002020202031
:10303c002d2052656d6f74654e6f6465204d414354
:10304c003a20257820257820257820257820257889
:10305c002025780d0a00000069706572663a2053cd
:10306c006574206f66205458206275666665722000
:10307c0073697a65206661696c65640d0a000000ed
:10308c0069706572663a20536574206f66205458d7
:10309c002071756575696e67206c696d6974206641
:1030ac0061696c65640d0a0069706572663a20434b
:1030bc006c69656e7420636f6e6e656374696e67a0
:1030cc0020746f2025752e25752e25752e25752cb3
:1030dc002055445020706f72742025750d0a000025
:1030ec0069706572663a20436c69656e7420636f13
:1030fc006e6e656374696e6720746f2025752e255e
:10310c00752e25752e25752c2054435020706f720a
:10311c00742025750d0a000069706572663a20549a
:10312c00435020436c69656e7420636f6e6e6563eb
:10313c0074696f6e2074696d656f75740d0a00008b
:10314c003a20697065726620636f6d6d616e647391
:10315c000000000069706572660000003a20203c97
:10316c0069706572663e20737461727420636d645d
:10317c000000000069706572666b00003a203c69c3
:10318c00706572666b3e206b696c6c20636d6400bd
:10319c0069706572666900003a203c6970657266f8
:1031ac006920616464726573733e2020696e746576
:1031bc00726661636520636d6400000069706572fe
:1031cc00667300003a203c697065726673207478ef
:1031dc002f72782073697a653e2074782f7278206c
:1031ec0073697a6520636d64000000004950763481
:1031fc00204173736572743a2025732c20696e20fc
:10320c006c696e653a2025642c200d0a00000000c4
:10321c004950763420496e69743a204661696c6570
:10322c006420746f20696e6974616c697a653a20e8
:10323c00256421200d0a0000495076343a2046615d
:10324c00696c656420746f2072656769737465724c
:10325c0020415250206e6f74696669636174696fa6
:10326c006e21200d0a000000495076343a2041525c
:10327c005020656e747269657320706f6f6c206579
:10328c006d707479210d0a002e2e2f7372632f63cb
:10329c006f6e6669672f64656661756c742f6c69f7
:1032ac0062726172792f74637069702f7372632ffd
:1032bc00646e732e630000002e2e2f7372632f63c7
:1032cc006f6e6669672f64656661756c742f6c69c7
:1032dc0062726172792f74637069702f7372632fcd
:1032ec0074637069705f68656c706572735f70721f
:1032fc0069766174652e68002e2e2f7372632f63ae
:10330c006f6e6669672f64656661756c742f6c6986
:10331c0062726172792f74637069702f7372632f8c
:10332c0074637069705f68656c706572732e63008e
:10333c0025642e25642e25642e256400252e3278d6
:10334c003a252e32783a252e32783a252e32783a92
:10335c00252e32783a252e32780000006c6f7700db
:10336c00544350495020537461636b20417373650f
:10337c0072743a20696e2066696c653a2025732c4c
:10338c002066756e633a2025732c206c696e653a45
:10339c002025642c200d0a005443502f49502053f3
:1033ac007461636b3a202573204d414320696e692b
:1033bc007469616c697a6174696f6e206661696c9d
:1033cc0065640d0a000000005443502f49502053ef
:1033dc007461636b3a202573204d4143204f706517
:1033ec006e206661696c65640d0a00005443502fb1
:1033fc00495020537461636b3a204d6f64756c6552
:10340c00206e6f3a20256420496e697469616c697d
:10341c007a6174696f6e206661696c65640d0a006f
:10342c005443502f495020537461636b3a202573d9
:10343c00204d4143206576656e74206e6f7469660d
:10344c0069636174696f6e2073657474696e67204b
:10345c006661696c65640d0a0000000054435049b4
:10346c005020537461636b20436f6e643a20696e15
:10347c002066696c653a2025732c2066756e633a5c
:10348c002025732c206c696e653a2025642c200d48
:10349c000a0000005443502f495020537461636b51
:1034ac003a2048656170206372656174696f6e20a3
:1034bc006661696c65642c20747970653a202564aa
:1034cc000d0a00005443502f495020537461636b14
:1034dc003a204e6574776f726b20636f6e66696706
:1034ec0075726174696f6e20616c6c6f6361746965
:1034fc006f6e206661696c65643a20256c750d0ae7
:10350c00000000005443502f495020537461636bea
:10351c003a205061636b657420696e697469616ce3
:10352c00697a6174696f6e206661696c65643a20b2
:10353c00307825780d0a00005443502f4950205301
:10354c007461636b3a2044656661756c7420466cdb
:10355c00617368204e6574776f726b20636f6e6653
:10356c00696775726174696f6e206c6f6164206637
:10357c0061696c656420257a750d0a005443502fdf
:10358c00495020537461636b3a204e6574776f72a7
:10359c006b20636f6e66696775726174696f6e20fc
:1035ac00696e697469616c697a6174696f6e2066a1
:1035bc0061696c65643a2025640d0a005443502ff0
:1035cc00495020537461636b3a204e6574776f7267
:1035dc006b20636f6e66696775726174696f6e3aa2
:1035ec0020696e76616c6964204950206164647254
:1035fc006573733a2030782538780d0a0000000086
:10360c002573257a750000002573257a753a256493
:10361c00000000005443502f495020537461636bd9
:10362c003a20506f776572204d6f646520696e6922
:10363c007469616c697a6174696f6e206661696c1a
:10364c003a2025640d0a00005443502f4950205352
:10365c007461636b3a2044796e616d6963206d65aa
:10366c006d6f7279206973206c6f773a20256c75b9
:10367c000d0a00005443502f495020537461636b62
:10368c003a20496e697469616c697a6174696f6e0c
:10369c00206661696c6564202564202d2041626f71
:1036ac007274696e6721200d0a0000005443502f7c
:1036bc00495020537461636b3a20496e6974696197
:1036cc006c697a6174696f6e20537461727465648d
:1036dc00200d0a005443502f495020537461636be2
:1036ec003a204e6574776f726b20636f6e666967f4
:1036fc0075726174696f6e206c6f616420666169ac
:10370c006c65643a2025640d0a0000005443502f68
:10371c00495020537461636b3a205469636b207277
:10372c006567697374726174696f6e206661696c28
:10373c0065643a2025640d0a000000005443502fa4
:10374c00495020537461636b3a20496e6974696106
:10375c006c697a6174696f6e2053595320544d52c1
:10376c00206661696c65643a202564202d204162d5
:10377c006f7274696e6721200d0a00005443502f3c
:10378c00495020537461636b3a20496e69746961c6
:10379c006c697a6174696f6e20456e646564202d66
:1037ac002073756363657373200d0a005443502fa7
:1037bc00495020537461636b3a20496e746572668c
:1037cc0061636520496e697469616c697a617469b9
:1037dc006f6e206661696c65643a203078257820bc
:1037ec002d2041626f7274696e6721200d0a0000f2
:1037fc002e2e2f7372632f636f6e6669672f64654d
:10380c006661756c742f6c6962726172792f746366
:10381c007069702f7372632f74637069705f6d6160
:10382c006e616765722e6300756e6b00657468005f
:10383c00776c616e0000000070707000673361641b
:10384c00700000005061636b65742041636b3a201b
:10385c006f727068616e207061636b657421200dee
:10386c000a000000554450204e554c4c2064796e93
:10387c00616d696320616c6c6f636174696f6e203c
:10388c0068616e646c6500005544502044796e612b
:10389c006d696320616c6c6f636174696f6e206617
:1038ac0061696c656400000042726964676520415f
:1038bc0073736572743a2025732c20696e206c69c1
:1038cc006e653a2025642c200d0a0000546f6f2081
:1038dc006d75636820646174612e2041626f72742f
:1038ec0065640d0a000000000d0a41636365737383
:1038fc002064656e6965640d0a0d0a00506173736e
:10390c00776f72643a20fffd2d0000000d0a4c6f9a
:10391c006767656420696e2073756363657373668e
:10392c00756c6c790d0a0d0a000000000d0a2d2d26
:10393c002d2054656c6e657420436f6e736f6c65cf
:10394c00202d2d2d0d0a547970652068656c702022
:10395c00666f7220636f6d6d616e64730d0a3e004d
:10396c004661696c656420746f20636f6e6e65636d
:10397c007420746f2074686520636f6d6d616e6464
:10398c002070726f636573736f722e2041626f7259
:10399c0074696e67210d0a002e2e2f7372632f63cc
:1039ac006f6e6669672f64656661756c742f6c69e0
:1039bc0062726172792f74637069702f7372632fe6
:1039cc0074656c6e65742e630000000074656c6e1b
:1039dc006574204e554c4c2064796e616d69632082
:1039ec00616c6c6f636174696f6e2068616e646c7e
:1039fc00652f696e69742064617461002074656c54
:103a0c006e65742044796e616d696320616c6c6fb6
:103a1c00636174696f6e206661696c656400000097
:103a2c002074656c6e65743a2053657474696e67a6
:103a3c0020545820427566666572206661696c6513
:103a4c00643a2025640d0a002074656c6e65743a26
:103a5c002053657474696e672052582042756666ef
:103a6c006572206661696c65643a2025640d0a00f4
:103a7c000d0a2d2d2d2d2d2d2d20537570706f723f
:103a8c0074656420636f6d6d616e642067726f7511
:103a9c007073202d2d2d2d2d2d0000000d0a202aa8
:103aac002a2a2000202a2a2a000000000d0a2d2d87
:103abc002d2d2d2d2d2d2d2d204275696c742069e9
:103acc006e20636f6d6d616e6473202d2d2d2d2d09
:103adc002d2d2d2d2d0000000d0a556e6b6e6f7760
:103aec006e20636f6d6d616e642067726f75702ee2
:103afc00205472792068656c700d0a00082008004b
:103b0c00080000001b5b2564430000001b5b256460
:103b1c00440000000d0a202a2a2a20517569747469
:103b2c00696e672074686520436f6d6d616e6420eb
:103b3c0050726f636573736f722e20427965202a01
:103b4c002a2a0d0a000000000d0a202a2a2a2053d6
:103b5c00797374656d205265626f6f74202a2a2afe
:103b6c000d0a000020092c004661696c6564207404
:103b7c006f206372656174652074686520436f6e95
:103b8c00736f6c65204150490d0a0000202a2a2ac7
:103b9c0020436f6d6d616e642050726f636573733b
:103bac006f723a20506c6561736520747970652072
:103bbc00696e206120636f6d6d616e642a2a2a0d17
:103bcc000a000000202a2a2a20436f6d6d616e6462
:103bdc002050726f636573736f723a20756e6b6ee3
:103bec006f776e20636f6d6d616e642e202a2a2aaa
:103bfc000d0a00000a0d20546f6f206d616e792044
:103c0c00617267756d656e74732e204d6178696d88
:103c1c00756d206172677320737570706f72746547
:103c2c00643a202564210d0a000000003e000000cb
:103c3c00081b5b4b25731b5b25644400081b5b4b0b
:103c4c00000000001b5b4b25731b5b2564440000cc
:103c5c00202a2a2a20436f6d6d616e642050726f8a
:103c6c00636573736f722062756666657220657822
:103c7c006365656465642e2052657472792e202a02
:103c8c002a2a0d0a0000000072657365740000009a
:103c9c003a20526573657420686f737400000000dd
:103cac00710000003a207175697420636f6d6d614d
:103cbc006e642070726f636573736f720000000026
:103ccc0068656c70000000003a2068656c7000003c
:103cdc001b5b41001b5b42001b5b43001b5b4400f6
:103cec001b5b317e000000001b5b347e000000007b
:103cfc004c414e38363578004d4348505f4c414e60
:103d0c0038363578000000003139322e3136382ef5
:103d1c00302e3131000000003235352e3235352e43
:103d2c003235352e300000003139322e3136382ef6
:103d3c00302e3100302e302e302e30004d43485076
:103d4c00424f4152445f43003139322e3136382ec6
:103d5c00302e3132000000003139322e3136382eff
:103d6c00302e2e3100000000546573742067726f82
:103d7c00757020636f6d6d616e64733a0a0d00008f
:103d8c00202068656c7020202020202020202020fe
:103d9c002020202020202020202020202020202d0a
:103dac002053686f7720746869732068656c700a9b
:103dbc000d000000202074696d657374616d7020b6
:103dcc0020202020202020202020202020202020e7
:103ddc002020202d2053686f77206275696c642039
:103dec0074696d657374616d700a0d0020207570b7
:103dfc0074696d6520202020202020202020202088
:103e0c0020202020202020202020202d2054696dcf
:103e1c00652073696e636520626f6f742f6c6173bc
:103e2c00742072657365740a0d000000202069709f
:103e3c0064756d70203c6d6f64653e2020202020e1
:103e4c0020202020202020202020202d2044756d93
:103e5c0070205258204950207061636b6574732038
:103e6c0028303d6f66662c20313d657468302c20ff
:103e7c00323d657468312c20333d626f7468290ab9
:103e8c000d0000002020737461747320202020200a
:103e9c002020202020202020202020202020202016
:103eac002020202d2053686f772054582f525820f3
:103ebc00636f756e7465727320666f7220657468bb
:103ecc003020616e6420657468310a0d00000000ba
:103edc0020206d656d696e666f20202020202020cb
:103eec002020202020202020202020202020202db9
:103efc002046726565206d656d6f7279206f6e203e
:103f0c0074686520432d72756e74696d65206865e3
:103f1c00617020616e6420746865205443502f4991
:103f2c005020686561700a0d000000002020647547
:103f3c006d70203c616464723e203c636f756e74de
:103f4c003e202020202020202020202d2044756d74
:103f5c0070206d656d6f72792028686578206164ba
:103f6c0064722c20636f756e74290a0d00000000ba
:103f7c0020207065656b203c616464723e205b732d
:103f8c00697a655d20202020202020202020202df3
:103f9c00205265616420612073696e676c652076c0
:103fac00616c7565202873697a653d317c327c348f
:103fbc00290a0d002020706f6b65203c61646472cf
:103fcc003e203c76616c3e205b73697a655d2020f7
:103fdc002020202d20577269746520612073696e32
:103fec00676c652076616c7565202873697a653d10
:103ffc00317c327c34290a0d0000000020206c6fcb
:10400c0067636c65617220202020202020202020f6
:10401c0020202020202020202020202d20436c65d3
:10402c006172206465666572726564207061636b91
:10403c006574206c6f67206275666665720a0d0088
:10404c0020206c6f67737461742020202020202046
:10405c002020202020202020202020202020202d47
:10406c002053686f77206465666572726564206c96
:10407c006f6720737461746973746963730a0d00dc
:10408c000a0d4c414e383635782072656769737469
:10409c006572732c2074657374206d6f6465732c5a
:1040ac0020504c43413a2073656520276c616e6843
:1040bc00656c70270a0d0000506f7274206d697268
:1040cc00726f722f736e69666665723a20736565de
:1040dc0020276d6972726f72272f27736e6966665f
:1040ec006572272e20526177206672616d6520748f
:1040fc006573743a2073656520276e6f69705f7302
:10410c00656e64272e0a0d00544350206563686f5a
:10411c00207365727665723a207365652027746525
:10412c007374736572766572272e2050657273698d
:10413c007374656e7420636f6e6669673a2073657d
:10414c0065202773686f77656e76272e0a0d000041
:10415c003d3d3d3d3d3d3d3d3d3d3d3d3d3d3d3d83
:10416c003d3d3d3d3d3d3d3d3d3d3d3d3d3d3d3d73
:10417c003d3d3d3d3d3d0a0d0000000074637069fe
:10418c00705f69706572665f6c616e383635782069
:10419c00627269646765202d204275696c642049e0
:1041ac006e666f0a0d0000004275696c64205469dc
:1041bc006d657374616d703a2053657020203220e8
:1041cc00323032362032313a35333a35300a0d003e
:1041dc005b4c4f475d2072696e6720627566666541
:1041ec007220636c65617265640d0a005b4c4f470d
:1041fc005d20746f74616c3d25752070656e64690b
:10420c006e673d2575206f766572666c6f77733db2
:10421c0025752062756673697a653d25750d0a00f2
:10422c005b4c4f475d20706f6f6c5f6f666673659c
:10423c00743d257520706f6f6c5f73697a653d25d1
:10424c007520282575206672616d65732078202590
:10425c0075206279746573290d0a00002530387851
:10426c003a20000020253032780000002020200069
:10427c0020202025730a0d00432d72756e74696d14
:10428c006520686561703a20746f74616c3d2575aa
:10429c0020206c617267657374206672656520629c
:1042ac006c6f636b3d25752020286e616e6f2d6dd4
:1042bc00616c6c6f633b206e6f206578616374205a
:1042cc006672656520636f756e74290d0a000000b7
:1042dc005443502f495020686561703a20202020ab
:1042ec0073697a653d25752020667265653d257577
:1042fc0020206d6178626c6f636b3d2575202068a2
:10430c0069676877617465723d25750d0a00000058
:10431c005443502f495020686561703a202020206a
:10432c00286e6f2068616e646c65290d0a000000b0
:10433c00657468300000000065746831000000008e
:10434c0025733a206e6f7420666f756e640a0d00cb
:10435c0025732054583a206f6b3d2564206572728a
:10436c003d2564207146756c6c3d25642070656e2e
:10437c00643d25640a0d000025732052583a206fc5
:10438c006b3d2564206572723d2564206e6f6275ed
:10439c0066733d25642070656e643d25640a0d00ce
:1043ac0025733a207374617473206e6f7420617678
:1043bc0061696c61626c650a0d0000006d61696e6b
:1043cc00206c6f6f703a20256c75206379636c6577
:1043dc00732f730a0d000000757074696d653a20b7
:1043ec0025756420253032753a253032753a2530e2
:1043fc003275202028256c7520732073696e6365d7
:10440c0020626f6f742f6c617374207265736574a6
:10441c00290d0a0061646d696e0000007061737390
:10442c00776f72640000000054656c6e65742041f7
:10443c0063636573732041757468656e7469636139
:10444c007465640a0d00000054656c6e657420413f
:10445c006363657373204465636c696e65640a0df0
:10446c000000000055736167653a20706f6b652022
:10447c003c616464726573735f6865783e203c765a
:10448c00616c75655f6865783e205b73697a653d24
:10449c00317c327c345d0a0d000000004578616d82
:1044ac00706c653a20706f6b652030783432303028
:1044bc0030303030203078313233343536373820a4
:1044cc00340a0d00307825303858203c3d203078a7
:1044dc00253032580a0d0000307825303858203cf1
:1044ec003d203078253034580a0d000030782530c6
:1044fc003858203c3d203078253038580a0d0000c3
:10450c0053697a65206d75737420626520312c2097
:10451c00322c206f7220340a0d0000005573616735
:10452c00653a207065656b203c61646472657373d9
:10453c005f6865783e205b73697a653d317c327cbf
:10454c00345d0a0d000000004578616d706c653ab1
:10455c00207065656b20307834323030303030303c
:10456c0020340a0d000000003078253038583a20ed
:10457c003078253032580a0d000000003078253094
:10458c0038583a203078253034580a0d0000000095
:10459c003078253038583a203078253038580a0d84
:1045ac000000000055736167653a20697064756d91
:1045bc0070203c6d6f64653e202028303d6f666630
:1045cc002c20313d657468302c20323d6574683187
:1045dc002c20333d626f7468290a0d004950204c21
:1045ec00617965722044756d702064652d6163740a
:1045fc006976617465640a0d000000004950204c16
:10460c00617965722044756d70206163746976619f
:10461c00746564206f6e20657468300a0d000000ac
:10462c004950204c617965722044756d702061632e
:10463c0074697661746564206f6e20657468310ae4
:10464c000d0000004950204c617965722044756d55
:10465c007020616374697661746564206f6e206587
:10466c0074683020616e6420657468310a0d000036
:10467c00506172616d65746572206f7574206f6620
:10468c002072616e67650a0d00000000557361674a
:10469c00653a2064756d70203c6164647265737357
:1046ac005f6865783e203c636f756e743e0a0d0042
:1046bc004578616d706c653a2064756d702030784a
:1046cc0032303030303030302036340a0d000000bb
:1046dc00436f756e74206d757374206265203e2077
:1046ec00300a0d004d656d6f72792064756d703aee
:1046fc002030782530385820202575206279746553
:10470c00730a0d003a205465737420436f6d6d610c
:10471c006e64730054657374000000004f4b00000e
:10472c004641494c45442028736c6f7420616c726f
:10473c00656164792074616b656e2900205b54524d
:10474c00554e435d000000004e4f542041564149e8
:10475c004c41424c450000006574683120283130d2
:10476c0030424153452d545829203a2025730a0dc7
:10477c00000000004272696467696e6720697320eb
:10478c0044495341424c4544202d206974206e65a8
:10479c0065647320626f746820696e7465726661fb
:1047ac006365732e0a0d0000436f6e74696e756934
:1047bc006e67206f6e2074686520737572766976eb
:1047cc00696e6720696e746572666163653b206310
:1047dc006865636b20746865205048592f64617557
:1047ec00676874657220626f6172642e0a0d000036
:1047fc0054656c6e657420617574682068616e64b4
:10480c006c657220726567697374726174696f6e1e
:10481c003a2025730a0d000045303a2575206c6549
:10482c006e3d25752074733d256c6c75206d73255c
:10483c00730d0a0045313a2575206c656e3d257562
:10484c002074733d256c6c75206d7325730d0a00f7
:10485c006574683020283130424153452d54315312
:10486c0029203a2025730a0d000000003a207368b5
:10487c006f7720546573742067726f757020636f47
:10488c006d6d616e6473000074696d657374616d38
:10489c00700000003a2073686f77206275696c6451
:1048ac002074696d657374616d7000007570746946
:1048bc006d6500003a2074696d652073696e6365df
:1048cc0020626f6f742f6c617374207265736574e2
:1048dc002028642068683a6d6d3a737329000000d3
:1048ec00697064756d7000003a2064756d7020728b
:1048fc0078206970207061636b6574732028303a7e
:10490c006f666620313a6574683020323a65746897
:10491c003120333a626f7468290000003a207368c2
:10492c006f772054582f525820636f756e746572d0
:10493c007320666f72206574683020616e64206528
:10494c00746831006d656d696e666f003a20667231
:10495c006565206d656d6f7279206f6e207468656a
:10496c0020432d72756e74696d65206865617020c9
:10497c00616e6420746865205443502f4950206840
:10498c006561700064756d70000000003a206475fc
:10499c006d70206d656d6f7279202864756d702057
:1049ac003c616464725f6865783e203c636f756e31
:1049bc00743e29007065656b000000003a2072653a
:1049cc00616420612073696e676c652076616c751b
:1049dc006520287065656b203c616464725f686556
:1049ec00783e205b73697a653d317c327c345d297d
:1049fc0000000000706f6b65000000003a207772b9
:104a0c0069746520612073696e676c652076616cd2
:104a1c0075652028706f6b65203c616464725f68fb
:104a2c0065783e203c76616c75655f6865783e20e4
:104a3c005b73697a653d317c327c345d2900000002
:104a4c006c6f67636c656172000000003a20636ce8
:104a5c00656172206465666572726564207061635d
:104a6c006b6574206c6f67206275666665720000fa
:104a7c006c6f6773746174003a2073686f7720648d
:104a8c0065666572726564206c6f672073746174ff
:104a9c006973746963732028746f74616c2c207053
:104aac00656e64696e672c206f766572666c6f77c5
:104abc007329000075736167653a20736574656ec0
:104acc0076203c6b65793e203c76616c3e0d0a206d
:104adc00204950206b6579733a2020206970302f63
:104aec006d61736b302f6777302f646e73302c20b1
:104afc006970312f6d61736b312f6777312f646e55
:104b0c007331202028646f747465642d7175616431
:104b1c00290d0a20204d4143206b6579733a2020e2
:104b2c006d6163302c206d61633120202858583a18
:104b3c0058583a58583a58583a58583a58583b20b6
:104b4c006170706c69657320616674657220726542
:104b5c00736574290d0a2020504c4341206b6579f4
:104b6c00733a20706c63615f69642028302e2e329a
:104b7c003534292c20706c63615f636e742028318e
:104b8c002e2e323535290d0a20206d6972726f7206
:104b9c003a20202020307c31202028657468302d6c
:104bac003e6574683120706f7274206d6972726f1b
:104bbc007220617420626f6f74290d0a2020736e4d
:104bcc0069666665723a202020307c31202028737b
:104bdc0075707072657373207468652065746830c5
:104bec0020504859207472616e736d6974746572cb
:104bfc0020617420626f6f74290d0a006d697272e6
:104c0c006f720000736574656e763a206d6972720e
:104c1c006f72206d7573742062652030206f722066
:104c2c00310d0a00736574656e763a206d69727287
:104c3c006f72203d20256c75202852414d206f6edf
:104c4c006c793b202773617665656e762720746fcf
:104c5c0020706572736973743b2074616b6573208b
:104c6c0065666665637420617420746865206e6582
:104c7c00787420626f6f74202d2075736520276dfa
:104c8c006972726f7220256c752720746f20737790
:104c9c0069746368206974206e6f77290d0a0000af
:104cac00736e696666657200736574656e763a201c
:104cbc00736e6966666572206d757374206265200b
:104ccc0030206f7220310d0a00000000736574658e
:104cdc006e763a20736e6966666572203d20256c8f
:104cec0075202852414d206f6e6c793b20277361e3
:104cfc007665656e762720746f20706572736973a4
:104d0c00743b2074616b6573206566666563742003
:104d1c00617420746865206e65787420626f6f749e
:104d2c00202d207573652027736e69666665722069
:104d3c00256c752720746f207377697463682069fc
:104d4c0074206e6f77290d0a000000006d616330ce
:104d5c00000000006d6163310000000025783a25e9
:104d6c00783a25783a25783a25783a257800000063
:104d7c00736574656e763a20626164204d41432000
:104d8c002725732720287573652058583a58583aa8
:104d9c0058583a58583a58583a5858290d0a000059
:104dac00706c63615f696400706c63615f636e74e7
:104dbc0000000000736574656e763a20706c636158
:104dcc005f69642072616e676520302e2e32353437
:104ddc000d0a0000736574656e763a20706c636121
:104dec005f636e742072616e676520312e2e3235d2
:104dfc00350d0a00736574656e763a202573203d77
:104e0c0020256c75202852414d206f6e6c793b200b
:104e1c002773617665656e762720746f20706572d6
:104e2c0073697374290d0a00697030006d61736bbe
:104e3c003000000067773000646e733000000000b3
:104e4c00697031006d61736b310000006777310060
:104e5c00646e733100000000736574656e763a20e1
:104e6c00756e6b6e6f776e206b65792027257327b7
:104e7c000d0a0000736574656e763a2062616420d9
:104e8c00495020272573270d0a00000073657465af
:104e9c006e763a202573203d202573202852414df3
:104eac00206f6e6c793b202773617665656e762773
:104ebc0020746f2070657273697374290d0a000079
:104ecc00736574656e763a202573203d202573201a
:104edc002852414d206f6e6c793b202773617665ab
:104eec00656e762720746f20706572736973743bde
:104efc00204d4143206170706c696573206166744c
:104f0c006572207265736574290d0a006f6b000061
:104f1c00424144004f4e20004f4646004f4e000089
:104f2c00656e76202852414d20736861646f772935
:104f3c003a0d0a002020656e762020206964202519
:104f4c0073202076657273696f6e20256c75202036
:104f5c0063726320257320207c20206669726d7734
:104f6c0061726520696420257320207665727369ef
:104f7c006f6e20256c75202025730d0a0000000033
:104f8c0074637069705f69706572665f6c616e38ae
:104f9c003635785f6272696467650000202065743d
:104fac00682564202000000069702000257325739b
:104fbc000000000020206d61736b200020206777bb
:104fcc00200000002020646e732000002530325831
:104fdc003a253032583a253032583a253032583a40
:104fec00253032583a2530325800000020206574a4
:104ffc00683020206d61632025730d0a00000000cd
:10500c0020206574683120206d6163202573202079
:10501c00286170706c69656420617420626f6f74b4
:10502c00290d0a002020706c636120206964202502
:10503c006c752020636f756e7420256c752020288c
:10504c00657468302f543153290d0a0020206d6986
:10505c0072726f7220257320617420626f6f7420de
:10506c0020286e6f773a202573290d0a0000000066
:10507c002020736e6966666572202573206174202a
:10508c00626f6f742020286e6f773a202573290d7c
:10509c000a00000020202873617665656e76203d3d
:1050ac0020706572736973742b6170706c792c202d
:1050bc0072656164656e76203d2072656c6f61640b
:1050cc002c207265736574656e76203d2064656670
:1050dc0061756c7473290d0a0000000072657365ac
:1050ec0074656e763a20726573746f7265642063b2
:1050fc006f6d70696c65642064656661756c747342
:10510c002c2070657273697374656420616e642001
:10511c006170706c6965642e0d0a000072657365b0
:10512c0074656e763a2064656661756c7473206183
:10513c0070706c6965642062757420454550524fdf
:10514c004d207772697465204641494c45442e0dbb
:10515c000a00000072656164656e763a2072656cb7
:10516c006f616465642066726f6d20454550524fc7
:10517c004d20616e64206170706c6965642e0d0a3f
:10518c000000000072656164656e763a206e6f20d7
:10519c0076616c696420636f6e66696720696e2046
:1051ac00454550524f4d2e0d0a0000007361766537
:1051bc00656e763a207065727369737465642074d9
:1051cc006f20454550524f4d20616e6420617070c8
:1051dc006c6965642028616e204950206368616e9b
:1051ec0067652064726f70732074686520637572d4
:1051fc0072656e7420636f6e6e656374696f6e2971
:10520c002e0d0a0073617665656e763a2045455021
:10521c00524f4d207772697465204641494c454484
:10522c002e0d0a00656e763a206d696772617465a1
:10523c006420762575207265636f726420746f200c
:10524c00762575202873657474696e6773206b6599
:10525c0070742c20736e69666665723d30290d0a78
:10526c0000000000656e763a206d696772617465a6
:10527c006420762575207265636f726420746f20cc
:10528c00762575202873657474696e6773206b6559
:10529c0070742c206d6972726f723d302c20736e9d
:1052ac0069666665723d30290d0a0000656e763ab6
:1052bc00204449534341524445442074686520734b
:1052cc00746f726564207265636f72642028696400
:1052dc002025732076657273696f6e20256c75209e
:1052ec0063726320257329202d20746869732066ee
:1052fc0069726d7761726520777269746573206964
:10530c00642025732076657273696f6e20256c7529
:10531c0020282573292e0d0a656e763a20636f6d51
:10532c0070696c65642064656661756c747320616a
:10533c00726520696e207573652c20504c4341209a
:10534c006e6f6465206964206973206e6f77202509
:10535c00752e20436865636b202773686f77656ec5
:10536c007627206265666f72652072656c79696e4e
:10537c0067206f6e20746865206c696e6b2e0d0a49
:10538c00000000003a2070657273697374656e7466
:10539c00206e6574776f726b20636f6e6669672021
:1053ac002873617665656e762f72656164656e76bd
:1053bc002f73686f77656e762900000073686f77be
:1053cc00656e76003a2073686f7720746865206389
:1053dc00757272656e74206e6574776f726b206374
:1053ec006f6e666967202852414d20736861646f47
:1053fc0077290000736574656e7600003a2073653a
:10540c0074656e76203c6b65793e203c76616c3e13
:10541c002020286970302e2e2f646e73312c206d55
:10542c006163302f6d6163312c20706c63615f6937
:10543c00642c20706c63615f636e742c206d6972d8
:10544c00726f722c20736e6966666572290000009b
:10545c0073617665656e76003a2070657273697358
:10546c007420636f6e66696720746f2045455052d7
:10547c004f4d20616e64206170706c7920697420ce
:10548c006c6976650000000072656164656e76007b
:10549c003a2072656c6f616420636f6e6669672079
:1054ac0066726f6d20454550524f4d20616e6420e1
:1054bc006170706c79202864697363617264732005
:1054cc00756e736176656420656469747329000078
:1054dc007265736574656e76000000003a20726523
:1054ec0073657420746f20636f6d70696c656420d4
:1054fc0064656661756c74732c2070657273697366
:10550c007420616e64206170706c79004c414e386f
:10551c0036357820646961676e6f737469637320c4
:10552c00636f6d6d616e64733a0a0d0020206c61bf
:10553c006e5f7265616420203c616464723e202061
:10554c0020202020202020202020202d205265618a
:10555c006420204c414e383635582072656769738b
:10556c007465722028686578206164647265737351
:10557c00290a0d0020206c616e5f777269746520ba
:10558c003c616464723e203c76616c75653e202003
:10559c002020202d205772697465204c414e3836de
:1055ac003558207265676973746572202868657850
:1055bc0020616464722c206865782076616c756556
:1055cc00290a0d0020206c616e5f726d77203c61a2
:1055dc006464723e203c6d61736b3e203c76616c62
:1055ec003e20202d20526561642d6d6f64696679b3
:1055fc002d7772697465202b207665726966793a0d
:10560c00206e65773d286f6c64267e6d61736b2907
:10561c007c76616c0a0d00002020746573746d6fcc
:10562c006465205b302e2e345d205b7365636f6e7a
:10563c0064735d202020202d204945454520545879
:10564c002074657374206d6f64652c2076657269a7
:10565c006669656420627920726561646261636b5e
:10566c0020286e6f20617267203d2073686f772948
:10567c000a0d00002020706c63615f6e6f64652002
:10568c005b69645d20202020202020202020202009
:10569c002020202d204765742f73657420504c43b7
:1056ac0041206e6f646520494420286e6f20617222
:1056bc0067203d2073686f772063757272656e7416
:1056cc00290a0d002020706c63615f737461742073
:1056dc0020202020202020202020202020202020be
:1056ec002020202d20504c4341206275732068658a
:1056fc00616c74682062656c6f772049502d6672fe
:10570c00616d65206c6576656c20286c696e6b2ffd
:10571c006e6f6465732f544f2b424541434f4e209f
:10572c00636f756e74732f6576656e7473290a0dcd
:10573c00000000002020737169205b6e6f64657c33
:10574c00616c6c7c6f66665d202020202020202000
:10575c002020202d205369676e616c205175616c7f
:10576c0069747920496e64696361746f722c20636b
:10577c006f6e74696e756f757320286e6f20617211
:10578c0067203d2073686f77207265706f72742983
:10579c000a0d00002020737169207265706f72749d
:1057ac00203c7365633e7c6f6666202020202020a1
:1057bc002020202d206175746f2d7072696e7420fd
:1057cc0074686520737169207265706f72742065de
:1057dc0076657279203c7365633e20732c206f7262
:1057ec002073746f7020646f696e6720736f0a0d7d
:1057fc00000000000a0d41646472657373203d2043
:10580c00284d4d53203c3c20313629207c206f669e
:10581c00667365742e204d4d532033203d20504827
:10582c005920504d412f504d442c204d4d53203478
:10583c00203d2076656e646f7220737065636966b7
:10584c0069632e0a0d0000004578616d706c653a35
:10585c00206c616e5f72656164203078303030345a
:10586c004341303220202028504c43415f43545256
:10587c004c313a204e4f44455f434e543c3c38200b
:10588c007c204e4f44455f4944290a0d000000001e
:10589c004578616d706c653a20746573746d6f64d6
:1058ac00652031203330202020202020202020286b
:1058bc0074657374206d6f646520312c2061757470
:1058cc006f2d726576657274206166746572203313
:1058dc00302073290a0d00004578616d706c653ab3
:1058ec002073716920616c6c2020202020202020e6
:1058fc0020202020202020286d6f6e69746f72206c
:10590c00616c6c20504c4341206e6f6465732c208d
:10591c00776569676874656420617665726167652f
:10592c00290a0d004578616d706c653a20737169b8
:10593c00207265706f72742035202020202020206a
:10594c00202020287072696e74207468652072653e
:10595c00706f7274206576657279203520732c20f7
:10596c00737461727473206d6f6e69746f72696e8b
:10597c0067206966206e6565646564290a0d000000
:10598c0072756e6e696e67007374617274696e679e
:10599c00000000003f000000756e646566696e656e
:1059ac00640000005b5351495d206e6f74206d6f75
:1059bc006e69746f72696e67202d20277371692070
:1059cc003c6e6f646520302e2e3235343e27206fae
:1059dc0072202773716920616c6c2720746f20739f
:1059ec00746172740a0d00005b5351495d206e6f37
:1059fc0064653a20616c6c2028776569676874650a
:105a0c00642920202073746174653a2025730a0d73
:105a1c00000000005b5351495d206e6f64653a20b5
:105a2c00257520202073746174653a2025730a0d46
:105a3c00000000005b5351495d206e6f2076616c55
:105a4c0069642073616d706c6520796574202d20fc
:105a5c00616363756d756c6174696f6e20647572ca
:105a6c006174696f6e20646570656e6473206f6e0f
:105a7c0020747261666669630a0d00005b535149bc
:105a8c005d206c6173743a2025730a0d00000000d0
:105a9c005b5351495d206d696e3a2025752020209d
:105aac006d61783a20257520202073616d706c65ce
:105abc00733a2025750a0d005b5351495d206572c0
